{
  "contractName": "Lottery",
  "abi": [
    {
      "constant": true,
      "inputs": [
        {
          "name": "",
          "type": "uint256"
        }
      ],
      "name": "lottery_balance",
      "outputs": [
        {
          "name": "",
          "type": "uint256"
        }
      ],
      "payable": false,
      "stateMutability": "view",
      "type": "function"
    },
    {
      "constant": true,
      "inputs": [],
      "name": "purchase_end",
      "outputs": [
        {
          "name": "",
          "type": "uint256"
        }
      ],
      "payable": false,
      "stateMutability": "view",
      "type": "function"
    },
    {
      "constant": true,
      "inputs": [],
      "name": "reveal_end",
      "outputs": [
        {
          "name": "",
          "type": "uint256"
        }
      ],
      "payable": false,
      "stateMutability": "view",
      "type": "function"
    },
    {
      "constant": true,
      "inputs": [],
      "name": "initial_block_num",
      "outputs": [
        {
          "name": "",
          "type": "uint256"
        }
      ],
      "payable": false,
      "stateMutability": "view",
      "type": "function"
    },
    {
      "constant": true,
      "inputs": [],
      "name": "lottery_no",
      "outputs": [
        {
          "name": "",
          "type": "uint256"
        }
      ],
      "payable": false,
      "stateMutability": "view",
      "type": "function"
    },
    {
      "inputs": [],
      "payable": false,
      "stateMutability": "nonpayable",
      "type": "constructor"
    },
    {
      "constant": false,
      "inputs": [
        {
          "name": "_rand_hashes",
          "type": "bytes32[]"
        }
      ],
      "name": "buyFullTicket",
      "outputs": [
        {
          "name": "",
          "type": "bool"
        }
      ],
      "payable": true,
      "stateMutability": "payable",
      "type": "function"
    },
    {
      "constant": false,
      "inputs": [
        {
          "name": "_rand_nums",
          "type": "int256[]"
        }
      ],
      "name": "revealTicket",
      "outputs": [
        {
          "name": "",
          "type": "bool"
        }
      ],
      "payable": false,
      "stateMutability": "nonpayable",
      "type": "function"
    },
    {
      "constant": true,
      "inputs": [],
      "name": "getLotteryBalance",
      "outputs": [
        {
          "name": "",
          "type": "uint256"
        }
      ],
      "payable": false,
      "stateMutability": "view",
      "type": "function"
    },
    {
      "constant": true,
      "inputs": [
        {
          "name": "x",
          "type": "bytes32"
        }
      ],
      "name": "bytes32ToString",
      "outputs": [
        {
          "name": "",
          "type": "string"
        }
      ],
      "payable": false,
      "stateMutability": "view",
      "type": "function"
    },
    {
      "constant": true,
      "inputs": [
        {
          "name": "data",
          "type": "bytes32[]"
        }
      ],
      "name": "bytes32ArrayToString",
      "outputs": [
        {
          "name": "",
          "type": "string"
        }
      ],
      "payable": false,
      "stateMutability": "view",
      "type": "function"
    }
  ],
  "bytecode": "0x606060405234156200001057600080fd5b4360058190555060326005540160038190555060326003540160048190555060016006819055506001600960006101000a81548160ff02191690831515021790555060078054806001018281620000689190620000af565b9160005260206000209001600060019091909150555060078054806001018281620000949190620000af565b91600052602060002090016000809091909150555062000106565b815481835581811511620000d957818360005260206000209182019101620000d89190620000de565b5b505050565b6200010391905b80821115620000ff576000816000905550600101620000e5565b5090565b90565b611fcf80620001166000396000f3006060604052600436106100a4576000357c0100000000000000000000000000000000000000000000000000000000900463ffffffff1680630510a88a146100a95780630da19175146100e0578063262c7e181461014757806357cec365146101b957806360654e47146101e25780639201de551461020b5780639cbc87a3146102ab578063b01801371461037e578063f7c305ac146103a7578063ffc7d031146103d0575b600080fd5b34156100b457600080fd5b6100ca60048080359060200190919050506103f9565b6040518082815260200191505060405180910390f35b61012d60048080359060200190820180359060200190808060200260200160405190810160405280939291908181526020018383602002808284378201915050505050509190505061041d565b604051808215151515815260200191505060405180910390f35b341561015257600080fd5b61019f600480803590602001908201803590602001908080602002602001604051908101604052809392919081815260200183836020028082843782019150505050505091905050610641565b604051808215151515815260200191505060405180910390f35b34156101c457600080fd5b6101cc610bb8565b6040518082815260200191505060405180910390f35b34156101ed57600080fd5b6101f5610bbe565b6040518082815260200191505060405180910390f35b341561021657600080fd5b610230600480803560001916906020019091905050610be2565b6040518080602001828103825283818151815260200191508051906020019080838360005b83811015610270578082015181840152602081019050610255565b50505050905090810190601f16801561029d5780820380516001836020036101000a031916815260200191505b509250505060405180910390f35b34156102b657600080fd5b610303600480803590602001908201803590602001908080602002602001604051908101604052809392919081815260200183836020028082843782019150505050505091905050610dcf565b6040518080602001828103825283818151815260200191508051906020019080838360005b83811015610343578082015181840152602081019050610328565b50505050905090810190601f1680156103705780820380516001836020036101000a031916815260200191505b509250505060405180910390f35b341561038957600080fd5b610391610fed565b6040518082815260200191505060405180910390f35b34156103b257600080fd5b6103ba610ff3565b6040518082815260200191505060405180910390f35b34156103db57600080fd5b6103e3610ff9565b6040518082815260200191505060405180910390f35b60078181548110151561040857fe5b90600052602060002090016000915090505481565b600080610428611ca3565b4391506003548210151561043f5761043e610fff565b5b661c6bf5263400003414156106355760a0604051908101604052803373ffffffffffffffffffffffffffffffffffffffff1681526020016000600281111561048357fe5b815260200160001515815260200160036040518059106104a05750595b90808252806020026020018201604052508152602001858152509050600080600654815260200190815260200160002060003373ffffffffffffffffffffffffffffffffffffffff1673ffffffffffffffffffffffffffffffffffffffff168152602001908152602001600020805480600101828161051f9190611d02565b9160005260206000209060030201600083909190915060008201518160000160006101000a81548173ffffffffffffffffffffffffffffffffffffffff021916908373ffffffffffffffffffffffffffffffffffffffff16021790555060208201518160000160146101000a81548160ff021916908360028111156105a057fe5b021790555060408201518160000160156101000a81548160ff02191690831515021790555060608201518160010190805190602001906105e1929190611d34565b5060808201518160020190805190602001906105fe929190611d81565b5050505034600760065481548110151561061457fe5b9060005260206000209001600082825401925050819055506001925061063a565b600080fd5b5050919050565b600080600061064e611ca3565b60004393506004548410151561066757610666610fff565b5b600092505b600080600160065403815260200190815260200160002060003373ffffffffffffffffffffffffffffffffffffffff1673ffffffffffffffffffffffffffffffffffffffff16815260200190815260200160002080549050831015610baa57600080600160065403815260200190815260200160002060003373ffffffffffffffffffffffffffffffffffffffff1673ffffffffffffffffffffffffffffffffffffffff1681526020019081526020016000208381548110151561072c57fe5b906000526020600020906003020160a060405190810160405290816000820160009054906101000a900473ffffffffffffffffffffffffffffffffffffffff1673ffffffffffffffffffffffffffffffffffffffff1673ffffffffffffffffffffffffffffffffffffffff1681526020016000820160149054906101000a900460ff1660028111156107ba57fe5b60028111156107c557fe5b81526020016000820160159054906101000a900460ff161515151581526020016001820180548060200260200160405190810160405280929190818152602001828054801561083357602002820191906000526020600020905b81548152602001906001019080831161081f575b505050505081526020016002820180548060200260200160405190810160405280929190818152602001828054801561088f57602002820191906000526020600020905b81546000191681526020019060010190808311610877575b505050505081525050915081604001511515610b9d57816080015160008151811015156108b857fe5b90602001906020020151600019168660008151811015156108d557fe5b9060200190602002015133604051808381526020018273ffffffffffffffffffffffffffffffffffffffff1673ffffffffffffffffffffffffffffffffffffffff166c01000000000000000000000000028152601401925050506040518091039020600019161480156109db57508160800151600181518110151561095657fe5b906020019060200201516000191686600181518110151561097357fe5b9060200190602002015133604051808381526020018273ffffffffffffffffffffffffffffffffffffffff1673ffffffffffffffffffffffffffffffffffffffff166c0100000000000000000000000002815260140192505050604051809103902060001916145b8015610a7a5750816080015160028151811015156109f557fe5b9060200190602002015160001916866002815181101515610a1257fe5b9060200190602002015133604051808381526020018273ffffffffffffffffffffffffffffffffffffffff1673ffffffffffffffffffffffffffffffffffffffff166c0100000000000000000000000002815260140192505050604051809103902060001916145b90508015610b9c57600182604001901515908115158152505085826060018190525060088054806001018281610ab09190611d02565b9160005260206000209060030201600084909190915060008201518160000160006101000a81548173ffffffffffffffffffffffffffffffffffffffff021916908373ffffffffffffffffffffffffffffffffffffffff16021790555060208201518160000160146101000a81548160ff02191690836002811115610b3157fe5b021790555060408201518160000160156101000a81548160ff0219169083151502179055506060820151816001019080519060200190610b72929190611d34565b506080820151816002019080519060200190610b8f929190611d81565b5050505060019450610baf565b5b828060010193505061066c565b600094505b50505050919050565b60035481565b60006007600654815481101515610bd157fe5b906000526020600020900154905090565b610bea611dd4565b610bf2611de8565b6000806000610bff611de8565b6020604051805910610c0e5750595b9080825280601f01601f1916602001820160405250945060009350600092505b6020831015610cec578260080260020a876001900402600102915060007f010000000000000000000000000000000000000000000000000000000000000002827effffffffffffffffffffffffffffffffffffffffffffffffffffffffffffff1916141515610cdf57818585815181101515610ca657fe5b9060200101907effffffffffffffffffffffffffffffffffffffffffffffffffffffffffffff1916908160001a90535083806001019450505b8280600101935050610c2e565b83604051805910610cfa5750595b9080825280601f01601f19166020018201604052509050600092505b83831015610dc2578483815181101515610d2c57fe5b9060200101517f010000000000000000000000000000000000000000000000000000000000000090047f0100000000000000000000000000000000000000000000000000000000000000028184815181101515610d8557fe5b9060200101907effffffffffffffffffffffffffffffffffffffffffffffffffffffffffffff1916908160001a9053508280600101935050610d16565b8095505050505050919050565b610dd7611dd4565b610ddf611de8565b600080600080610ded611de8565b6020885102604051805910610dff5750595b9080825280601f01601f19166020018201604052509550600093505b8751841015610f0957600092505b6020831015610efc578260080260020a8885815181101515610e4757fe5b906020019060200201516001900402600102915060007f010000000000000000000000000000000000000000000000000000000000000002827effffffffffffffffffffffffffffffffffffffffffffffffffffffffffffff1916141515610eef57818686815181101515610eb857fe5b9060200101907effffffffffffffffffffffffffffffffffffffffffffffffffffffffffffff1916908160001a9053506001850194505b8280600101935050610e29565b8380600101945050610e1b565b84604051805910610f175750595b9080825280601f01601f19166020018201604052509050600093505b84841015610fdf578584815181101515610f4957fe5b9060200101517f010000000000000000000000000000000000000000000000000000000000000090047f0100000000000000000000000000000000000000000000000000000000000000028185815181101515610fa257fe5b9060200101907effffffffffffffffffffffffffffffffffffffffffffffffffffffffffffff1916908160001a9053508380600101945050610f33565b809650505050505050919050565b60045481565b60055481565b60065481565b6000611009611dfc565b600080611014611ca3565b43945060326003600082825401925050819055506007805480600101828161103c9190611e10565b916000526020600020900160008090919091505550600960009054906101000a900460ff1615156119f45761106f611a29565b9350600760016006540381548110151561108557fe5b9060005260206000209001549250600091505b600880549050821015611995576008828154811015156110b457fe5b906000526020600020906003020160a060405190810160405290816000820160009054906101000a900473ffffffffffffffffffffffffffffffffffffffff1673ffffffffffffffffffffffffffffffffffffffff1673ffffffffffffffffffffffffffffffffffffffff1681526020016000820160149054906101000a900460ff16600281111561114257fe5b600281111561114d57fe5b81526020016000820160159054906101000a900460ff16151515158152602001600182018054806020026020016040519081016040528092919081815260200182805480156111bb57602002820191906000526020600020905b8154815260200190600101908083116111a7575b505050505081526020016002820180548060200260200160405190810160405280929190818152602001828054801561121757602002820191906000526020600020905b815460001916815260200190600101908083116111ff575b505050505081525050905083600081518110151561123157fe5b906020019060200201518160600151600081518110151561124e57fe5b90602001906020020151141561149a576000600281111561126b57fe5b8160200151600281111561127b57fe5b141561131c5760028381151561128d57fe5b0460026000836000015173ffffffffffffffffffffffffffffffffffffffff1673ffffffffffffffffffffffffffffffffffffffff168152602001908152602001600020600082825401925050819055506002838115156112ea57fe5b0460076001600654038154811015156112ff57fe5b906000526020600020900160008282540392505081905550611495565b6001600281111561132957fe5b8160200151600281111561133957fe5b14156113da5760048381151561134b57fe5b0460026000836000015173ffffffffffffffffffffffffffffffffffffffff1673ffffffffffffffffffffffffffffffffffffffff168152602001908152602001600020600082825401925050819055506004838115156113a857fe5b0460076001600654038154811015156113bd57fe5b906000526020600020900160008282540392505081905550611494565b6002808111156113e657fe5b816020015160028111156113f657fe5b14156114935760088381151561140857fe5b0460026000836000015173ffffffffffffffffffffffffffffffffffffffff1673ffffffffffffffffffffffffffffffffffffffff1681526020019081526020016000206000828254019250508190555060088381151561146557fe5b04600760016006540381548110151561147a57fe5b9060005260206000209001600082825403925050819055505b5b5b611988565b8360018151811015156114a957fe5b90602001906020020151816060015160018151811015156114c657fe5b90602001906020020151141561171257600060028111156114e357fe5b816020015160028111156114f357fe5b14156115945760048381151561150557fe5b0460026000836000015173ffffffffffffffffffffffffffffffffffffffff1673ffffffffffffffffffffffffffffffffffffffff1681526020019081526020016000206000828254019250508190555060048381151561156257fe5b04600760016006540381548110151561157757fe5b90600052602060002090016000828254039250508190555061170d565b600160028111156115a157fe5b816020015160028111156115b157fe5b1415611652576008838115156115c357fe5b0460026000836000015173ffffffffffffffffffffffffffffffffffffffff1673ffffffffffffffffffffffffffffffffffffffff1681526020019081526020016000206000828254019250508190555060088381151561162057fe5b04600760016006540381548110151561163557fe5b90600052602060002090016000828254039250508190555061170c565b60028081111561165e57fe5b8160200151600281111561166e57fe5b141561170b5760108381151561168057fe5b0460026000836000015173ffffffffffffffffffffffffffffffffffffffff1673ffffffffffffffffffffffffffffffffffffffff168152602001908152602001600020600082825401925050819055506010838115156116dd57fe5b0460076001600654038154811015156116f257fe5b9060005260206000209001600082825403925050819055505b5b5b611987565b83600281518110151561172157fe5b906020019060200201518160600151600281518110151561173e57fe5b906020019060200201511415611986576000600281111561175b57fe5b8160200151600281111561176b57fe5b141561180c5760088381151561177d57fe5b0460026000836000015173ffffffffffffffffffffffffffffffffffffffff1673ffffffffffffffffffffffffffffffffffffffff168152602001908152602001600020600082825401925050819055506008838115156117da57fe5b0460076001600654038154811015156117ef57fe5b906000526020600020900160008282540392505081905550611985565b6001600281111561181957fe5b8160200151600281111561182957fe5b14156118ca5760108381151561183b57fe5b0460026000836000015173ffffffffffffffffffffffffffffffffffffffff1673ffffffffffffffffffffffffffffffffffffffff1681526020019081526020016000206000828254019250508190555060108381151561189857fe5b0460076001600654038154811015156118ad57fe5b906000526020600020900160008282540392505081905550611984565b6002808111156118d657fe5b816020015160028111156118e657fe5b1415611983576020838115156118f857fe5b0460026000836000015173ffffffffffffffffffffffffffffffffffffffff1673ffffffffffffffffffffffffffffffffffffffff1681526020019081526020016000206000828254019250508190555060208381151561195557fe5b04600760016006540381548110151561196a57fe5b9060005260206000209001600082825403925050819055505b5b5b5b5b5b8180600101925050611098565b60076001600654038154811015156119a957fe5b90600052602060002090015460076006548154811015156119c657fe5b9060005260206000209001600082825401925050819055506032600460008282540192505081905550611a10565b6000600960006101000a81548160ff0219169083151502179055505b6006600081548092919060010191905055505050505050565b611a31611dfc565b611a39611dfc565b60006003604051805910611a4a5750595b9080825280602002602001820160405250915060086000815481101515611a6d57fe5b90600052602060002090600302016001016000815481101515611a8c57fe5b906000526020600020900154826000815181101515611aa757fe5b906020019060200201818152505060086000815481101515611ac557fe5b90600052602060002090600302016001016001815481101515611ae457fe5b906000526020600020900154826001815181101515611aff57fe5b906020019060200201818152505060086000815481101515611b1d57fe5b90600052602060002090600302016001016002815481101515611b3c57fe5b906000526020600020900154826002815181101515611b5757fe5b9060200190602002018181525050600190505b600880549050811015611c9b57600881815481101515611b8657fe5b90600052602060002090600302016001016000815481101515611ba557fe5b906000526020600020900154826000815181101515611bc057fe5b9060200190602002018181511891508181525050600881815481101515611be357fe5b90600052602060002090600302016001016001815481101515611c0257fe5b906000526020600020900154826001815181101515611c1d57fe5b9060200190602002018181511891508181525050600881815481101515611c4057fe5b90600052602060002090600302016001016002815481101515611c5f57fe5b906000526020600020900154826002815181101515611c7a57fe5b90602001906020020181815118915081815250508080600101915050611b6a565b819250505090565b60a060405190810160405280600073ffffffffffffffffffffffffffffffffffffffff16815260200160006002811115611cd957fe5b8152602001600015158152602001611cef611e3c565b8152602001611cfc611e50565b81525090565b815481835581811511611d2f57600302816003028360005260206000209182019101611d2e9190611e64565b5b505050565b828054828255906000526020600020908101928215611d70579160200282015b82811115611d6f578251825591602001919060010190611d54565b5b509050611d7d9190611ef2565b5090565b828054828255906000526020600020908101928215611dc3579160200282015b82811115611dc2578251829060001916905591602001919060010190611da1565b5b509050611dd09190611f17565b5090565b602060405190810160405280600081525090565b602060405190810160405280600081525090565b602060405190810160405280600081525090565b815481835581811511611e3757818360005260206000209182019101611e369190611f3c565b5b505050565b602060405190810160405280600081525090565b602060405190810160405280600081525090565b611eef91905b80821115611eeb57600080820160006101000a81549073ffffffffffffffffffffffffffffffffffffffff02191690556000820160146101000a81549060ff02191690556000820160156101000a81549060ff0219169055600182016000611ed29190611f61565b600282016000611ee29190611f82565b50600301611e6a565b5090565b90565b611f1491905b80821115611f10576000816000905550600101611ef8565b5090565b90565b611f3991905b80821115611f35576000816000905550600101611f1d565b5090565b90565b611f5e91905b80821115611f5a576000816000905550600101611f42565b5090565b90565b5080546000825590600052602060002090810190611f7f9190611ef2565b50565b5080546000825590600052602060002090810190611fa09190611f17565b505600a165627a7a7230582045f2219fb2f4baffb71247f81a9ee61216df6493c13b2785b984864e790ad5330029",
  "source": "pragma solidity ^0.4.4;\n\n\ncontract Lottery {\n\n\tenum TicketType { Full, Half, Quarter }\t\t// types of Ticket\n\n\tstruct Ticket {\n\t\taddress owner;\t\t\t\t// purchaser of the Ticket\n\t\tTicketType ttype;\t\t\t// type of the Ticket\n\t\tbool is_verified;\t\t\t// verifying flag for the Ticket\n\t\tint[] rand_nums;\t\t\t// random numbers submitted by purchaser to verify with hashes\n\t\tbytes32[] rand_hashes;\t\t// hashes of random numbers submitted by purchaser while a ticket purchasing\n\t}\n\n\t// constant ticket prices\n\tuint constant full_pay = 8 finney;\n\tuint constant half_pay = 4 finney;\n\tuint constant quarter_pay = 2 finney;\n\n\t\n\tuint constant block_period = 50;\t// constant block period\n\n\n\t/* \t\n\t\t*********************************************************************\n\t\t*\t\t\t\t\t\t\t\t\t\t\t\t\t\t\t\t\t*\n\t\t*\t\t\t\t\t\t\tVARIABLES\t\t\t\t\t\t\t\t*\n\t\t*\t\t\t\t\t\t\t\t\t\t\t\t\t\t\t\t\t*\n\t\t*********************************************************************\n\t*/\n\n\tmapping(uint => mapping(address => Ticket[])) purchased_tickets;\t// map purchaser to Tickets he buy, for indexed lottery\n\tmapping(string => uint[3]) used_randoms;\t\t\t// keep random numbers to prevent use again, for each TicketType\n\tmapping(address => uint) balance_of_purchasers;\t\t// balance of purchasers' in the contract\n\n\n\tuint public purchase_end;\t// block number of purchase stage end\n\tuint public\treveal_end;\t\t// block number of reveal stage end\n\tuint public initial_block_num;\t// block number of the contract at the start\n    uint public lottery_no;\t\t// current lottery number\n\tuint[] public lottery_balance;\t// current balances of lotteries\n\n\t\n    Ticket[] revealed_tickets;\t// revealed ticket list\n\n    bool first_purchase;\n\n\n    /* \t\n\t\t*********************************************************************\n\t\t*\t\t\t\t\t\t\t\t\t\t\t\t\t\t\t\t\t*\n\t\t*\t\t\t\t\t\t\tFUNCTIONS\t\t\t\t\t\t\t\t*\n\t\t*\t\t\t\t\t\t\t\t\t\t\t\t\t\t\t\t\t*\n\t\t*********************************************************************\n\t*/\n\n\tfunction Lottery() {\n\t\tinitial_block_num = block.number;\n\t\tpurchase_end =\tinitial_block_num +  block_period;\n\t\treveal_end = purchase_end + block_period;\n\t\tlottery_no = 1;\n\t\tfirst_purchase = true;\n\t\tlottery_balance.push(1);\n\t\tlottery_balance.push(0);\n\t}\n\n\n\tfunction buyFullTicket(bytes32[] _rand_hashes) public payable returns (bool) {\n\t\tuint block_num = block.number;\n\n\n\t\tif (block_num >= purchase_end) {\n\t\t\tupdateLottery();\n\t\t}\n\n\t\t// concatenation of three hashes as string\n\t\t//string memory concat_hash = bytes32ArrayToString(_rand_hashes);\n\n\t\tif (msg.value == full_pay) {\n\n\t\t\tTicket memory ticket = Ticket({\n\t\t\t\towner: msg.sender,\n\t\t\t\trand_hashes: _rand_hashes,\n\t\t\t\tttype: TicketType.Full,\n\t\t\t\tis_verified: false,\n\t\t\t\trand_nums: new int[](3)\t\t\t\n\t\t\t});\n\n\n\t\t\t/* \n\t\t\t\tnumber of sold Full tickets should be smaller than 1 (there can be only one Full ticket)\n\t\t\t\tthese three random numbers must not for other TicketTypes, since trying buy Full ticket\n\t\t\t*/\n\t\t\t//if ( !(used_randoms[concat_hash][0] < 1 && \n\t\t\t//\t used_randoms[concat_hash][1] == 0 &&\n\t\t\t//\t used_randoms[concat_hash][2] == 0 )){\n\t\t\t//\trevert();\n\t\t\t//} else {\n\n\t\t\t//\tused_randoms[concat_hash][0] += 1;\n\n\t\t\t\tpurchased_tickets[lottery_no][msg.sender].push(ticket);\n\t\t\t\tlottery_balance[lottery_no] += msg.value;\n\n\t\t\t\t//TicketsBought(msg.sender, msg.value, ticket);\n\t\t\t\treturn true;\n\t\t\t//}\n\n\t\t} else {\n\t\t\trevert();\n\t\t}\n\t}\n\n\n\tfunction revealTicket(int[] _rand_nums) public returns(bool) {\n\t\tuint block_num = block.number;\n\n\n\t\tif (block_num >= reveal_end) {\n\t\t\tupdateLottery();\n\t\t}\n\n\n\t\t// verify three random numbers of purchaser with the ticket via hashes\n\t\tfor (uint i = 0; i < purchased_tickets[lottery_no-1][msg.sender].length; i++){\n\t\t\tTicket memory ticket = purchased_tickets[lottery_no-1][msg.sender][i];\n\t\t\tif (!ticket.is_verified){\n\n\t\t\t\tbool verify = ( keccak256(_rand_nums[0], msg.sender) == ticket.rand_hashes[0] && \n\t\t\t\t\t\t\t\tkeccak256(_rand_nums[1], msg.sender) == ticket.rand_hashes[1] && \n\t\t\t\t\t\t\t\tkeccak256(_rand_nums[2], msg.sender) == ticket.rand_hashes[2] );\n\t\t\t\tif (verify) {\n\t\t\t\t\tticket.is_verified = true;\n\t\t\t\t\tticket.rand_nums = _rand_nums;\n\t\t\t\t\trevealed_tickets.push(ticket);\n\t\t\t\t\treturn true;\n\t\t\t\t}\n\t\t\t}\n\t\t}\n\t\treturn false;\n\t}\n\n\n\tfunction updateLottery() private {\n\n\t\tuint block_num = block.number;\n\t\tpurchase_end += block_period;\n\t\tlottery_balance.push(0);\n\t\t\n\n\t\tif (!first_purchase){\n\n\t\t\t// determine winner random numbers with XOR\n\t\t\tint[] memory winner_numbers = random();\n\n\t\t\tuint temp_balance = lottery_balance[lottery_no-1];\n\t\t\tfor (uint i = 0; i < revealed_tickets.length; i++) {\n\n\t\t\t\tTicket memory ticket = revealed_tickets[i];\n\n\t\t\t\tif (ticket.rand_nums[0] == winner_numbers[0]) {\n\t\t\t\t\tif (ticket.ttype == TicketType.Full) {\n\t\t\t\t\t\tbalance_of_purchasers[ticket.owner] += temp_balance/2;\n\t\t\t\t\t\tlottery_balance[lottery_no-1] -= temp_balance/2;\n\t\t\t\t\t} else if (ticket.ttype == TicketType.Half) {\n\t\t\t\t\t\tbalance_of_purchasers[ticket.owner] += temp_balance/4;\n\t\t\t\t\t\tlottery_balance[lottery_no-1] -= temp_balance/4;\n\t\t\t\t\t} else if (ticket.ttype == TicketType.Quarter) {\n\t\t\t\t\t\tbalance_of_purchasers[ticket.owner] += temp_balance/8;\n\t\t\t\t\t\tlottery_balance[lottery_no-1] -= temp_balance/8;\n\t\t\t\t\t}\n\t\t\t\t}\n\n\t\t\t\telse if (ticket.rand_nums[1] == winner_numbers[1]) {\n\t\t\t\t\tif (ticket.ttype == TicketType.Full) {\n\t\t\t\t\t\tbalance_of_purchasers[ticket.owner] += temp_balance/4;\n\t\t\t\t\t\tlottery_balance[lottery_no-1] -= temp_balance/4;\n\t\t\t\t\t} else if (ticket.ttype == TicketType.Half) {\n\t\t\t\t\t\tbalance_of_purchasers[ticket.owner] += temp_balance/8;\n\t\t\t\t\t\tlottery_balance[lottery_no-1] -= temp_balance/8;\n\t\t\t\t\t} else if (ticket.ttype == TicketType.Quarter) {\n\t\t\t\t\t\tbalance_of_purchasers[ticket.owner] += temp_balance/16;\n\t\t\t\t\t\tlottery_balance[lottery_no-1] -= temp_balance/16;\n\t\t\t\t\t}\n\t\t\t\t}\n\n\t\t\t\telse if (ticket.rand_nums[2] == winner_numbers[2]) {\n\t\t\t\t\tif (ticket.ttype == TicketType.Full) {\n\t\t\t\t\t\tbalance_of_purchasers[ticket.owner] += temp_balance/8;\n\t\t\t\t\t\tlottery_balance[lottery_no-1] -= temp_balance/8;\n\t\t\t\t\t} else if (ticket.ttype == TicketType.Half) {\n\t\t\t\t\t\tbalance_of_purchasers[ticket.owner] += temp_balance/16;\n\t\t\t\t\t\tlottery_balance[lottery_no-1] -= temp_balance/16;\n\t\t\t\t\t} else if (ticket.ttype == TicketType.Quarter) {\n\t\t\t\t\t\tbalance_of_purchasers[ticket.owner] += temp_balance/32;\n\t\t\t\t\t\tlottery_balance[lottery_no-1] -= temp_balance/32;\n\t\t\t\t\t}\n\t\t\t\t}\n\t\t\t}\n\t\t\tlottery_balance[lottery_no] += lottery_balance[lottery_no-1];\n\n\t\t\treveal_end += block_period;\n\t\t\t\n\t\t} else {\n\t\t\tfirst_purchase = false;\n\t\t}\n\n\n\t\tlottery_no++;\n\t}\n\n\n\n\tfunction getLotteryBalance() constant public returns(uint) {\n    \treturn lottery_balance[lottery_no];\n  \t}\n\n\n\tfunction random() private view returns (int[]) {\n\t\tint[] memory winner_numbers = new int[](3);\n\n\t\twinner_numbers[0] = revealed_tickets[0].rand_nums[0];\n\t\twinner_numbers[1] = revealed_tickets[0].rand_nums[1];\n\t\twinner_numbers[2] = revealed_tickets[0].rand_nums[2];\n\t\tfor (uint i = 1; i < revealed_tickets.length; i++) {\n\t\t\twinner_numbers[0] ^= revealed_tickets[i].rand_nums[0];\n\t\t\twinner_numbers[1] ^= revealed_tickets[i].rand_nums[1];\n\t\t\twinner_numbers[2] ^= revealed_tickets[i].rand_nums[2];\n\t\t}\n\n\t\treturn winner_numbers;\n\t}\n\n\n\tfunction bytes32ToString(bytes32 x) constant returns (string) {\n        bytes memory bytesString = new bytes(32);\n        uint charCount = 0;\n        for (uint j = 0; j < 32; j++) {\n            byte char = byte(bytes32(uint(x) * 2 ** (8 * j)));\n            if (char != 0) {\n                bytesString[charCount] = char;\n                charCount++;\n            }\n        }\n        bytes memory bytesStringTrimmed = new bytes(charCount);\n        for (j = 0; j < charCount; j++) {\n            bytesStringTrimmed[j] = bytesString[j];\n        }\n        return string(bytesStringTrimmed);\n    }\n\n    function bytes32ArrayToString(bytes32[] data) constant returns (string) {\n        bytes memory bytesString = new bytes(data.length * 32);\n        uint urlLength;\n        for (uint i=0; i<data.length; i++) {\n            for (uint j=0; j<32; j++) {\n                byte char = byte(bytes32(uint(data[i]) * 2 ** (8 * j)));\n                if (char != 0) {\n                    bytesString[urlLength] = char;\n                    urlLength += 1;\n                }\n            }\n        }\n        bytes memory bytesStringTrimmed = new bytes(urlLength);\n        for (i=0; i<urlLength; i++) {\n            bytesStringTrimmed[i] = bytesString[i];\n        }\n        return string(bytesStringTrimmed);\n    }\n\n\n\n    /* \t\n\t\t*********************************************************************\n\t\t*\t\t\t\t\t\t\t\t\t\t\t\t\t\t\t\t\t*\n\t\t*\t\t\t\t\t\t\t\tEVENTS\t\t\t\t\t\t\t\t*\n\t\t*\t\t\t\t\t\t\t\t\t\t\t\t\t\t\t\t\t*\n\t\t*********************************************************************\n\t*/\n\n\t// Event for when tickets are bought\n\t//event TicketsBought(address indexed _from, uint _quantity);\n\n\t// Event for declaring the winner\n\t//event AwardWinnings(address _to, uint _winnings);\n\n\t// Event for lottery reset\n\t//event ResetLottery();\n\n}\n",
  "sourcePath": "/home/frkn/Desktop/Autonomous-Decentralized-Lottery/contracts/Lottery.sol",
  "compiler": {
    "name": "solc",
    "version": "0.4.21+commit.dfe3193c.Emscripten.clang"
  },
  "schemaVersion": "2.0.0",
  "updatedAt": "2018-04-22T15:28:36.396Z"
}