{
  "contractName": "Lottery",
  "abi": [
    {
      "constant": true,
      "inputs": [
        {
          "name": "",
          "type": "uint256"
        }
      ],
      "name": "lottery_balance",
      "outputs": [
        {
          "name": "",
          "type": "uint256"
        }
      ],
      "payable": false,
      "stateMutability": "view",
      "type": "function"
    },
    {
      "constant": true,
      "inputs": [],
      "name": "purchase_end",
      "outputs": [
        {
          "name": "",
          "type": "uint256"
        }
      ],
      "payable": false,
      "stateMutability": "view",
      "type": "function"
    },
    {
      "constant": true,
      "inputs": [],
      "name": "reveal_end",
      "outputs": [
        {
          "name": "",
          "type": "uint256"
        }
      ],
      "payable": false,
      "stateMutability": "view",
      "type": "function"
    },
    {
      "constant": true,
      "inputs": [],
      "name": "initial_block_num",
      "outputs": [
        {
          "name": "",
          "type": "uint256"
        }
      ],
      "payable": false,
      "stateMutability": "view",
      "type": "function"
    },
    {
      "constant": true,
      "inputs": [],
      "name": "lottery_no",
      "outputs": [
        {
          "name": "",
          "type": "uint256"
        }
      ],
      "payable": false,
      "stateMutability": "view",
      "type": "function"
    },
    {
      "inputs": [],
      "payable": false,
      "stateMutability": "nonpayable",
      "type": "constructor"
    },
    {
      "anonymous": false,
      "inputs": [
        {
          "indexed": false,
          "name": "owner",
          "type": "address"
        },
        {
          "indexed": false,
          "name": "ttype",
          "type": "uint8"
        },
        {
          "indexed": false,
          "name": "lottery_no",
          "type": "uint256"
        },
        {
          "indexed": false,
          "name": "block_num",
          "type": "uint256"
        }
      ],
      "name": "TicketPurchased",
      "type": "event"
    },
    {
      "anonymous": false,
      "inputs": [
        {
          "indexed": false,
          "name": "block_num",
          "type": "uint256"
        },
        {
          "indexed": false,
          "name": "lottery_no",
          "type": "uint256"
        }
      ],
      "name": "UpdateLottery",
      "type": "event"
    },
    {
      "anonymous": false,
      "inputs": [
        {
          "indexed": false,
          "name": "owner",
          "type": "address"
        },
        {
          "indexed": false,
          "name": "_rand_nums",
          "type": "int256[]"
        },
        {
          "indexed": false,
          "name": "block_num",
          "type": "uint256"
        },
        {
          "indexed": false,
          "name": "lottery_no",
          "type": "uint256"
        }
      ],
      "name": "RevealTicket",
      "type": "event"
    },
    {
      "anonymous": false,
      "inputs": [
        {
          "indexed": false,
          "name": "owner",
          "type": "address"
        },
        {
          "indexed": false,
          "name": "amnt",
          "type": "uint256"
        }
      ],
      "name": "AwardWinnings",
      "type": "event"
    },
    {
      "constant": false,
      "inputs": [
        {
          "name": "_rand_hashes",
          "type": "bytes32[]"
        }
      ],
      "name": "buyFullTicket",
      "outputs": [
        {
          "name": "",
          "type": "bool"
        }
      ],
      "payable": true,
      "stateMutability": "payable",
      "type": "function"
    },
    {
      "constant": false,
      "inputs": [
        {
          "name": "_rand_hashes",
          "type": "bytes32[]"
        }
      ],
      "name": "buyHalfTicket",
      "outputs": [
        {
          "name": "",
          "type": "bool"
        }
      ],
      "payable": true,
      "stateMutability": "payable",
      "type": "function"
    },
    {
      "constant": false,
      "inputs": [
        {
          "name": "_rand_hashes",
          "type": "bytes32[]"
        }
      ],
      "name": "buyQuarterTicket",
      "outputs": [
        {
          "name": "",
          "type": "bool"
        }
      ],
      "payable": true,
      "stateMutability": "payable",
      "type": "function"
    },
    {
      "constant": false,
      "inputs": [
        {
          "name": "_rand_nums",
          "type": "int256[]"
        }
      ],
      "name": "revealTicket",
      "outputs": [
        {
          "name": "",
          "type": "bool"
        }
      ],
      "payable": false,
      "stateMutability": "nonpayable",
      "type": "function"
    },
    {
      "constant": true,
      "inputs": [],
      "name": "getLotteryBalance",
      "outputs": [
        {
          "name": "",
          "type": "uint256"
        }
      ],
      "payable": false,
      "stateMutability": "view",
      "type": "function"
    },
    {
      "constant": false,
      "inputs": [],
      "name": "withdrawBalance",
      "outputs": [
        {
          "name": "success",
          "type": "bool"
        }
      ],
      "payable": false,
      "stateMutability": "nonpayable",
      "type": "function"
    },
    {
      "constant": true,
      "inputs": [
        {
          "name": "x",
          "type": "bytes32"
        }
      ],
      "name": "bytes32ToString",
      "outputs": [
        {
          "name": "",
          "type": "string"
        }
      ],
      "payable": false,
      "stateMutability": "view",
      "type": "function"
    },
    {
      "constant": true,
      "inputs": [
        {
          "name": "data",
          "type": "bytes32[]"
        }
      ],
      "name": "bytes32ArrayToString",
      "outputs": [
        {
          "name": "",
          "type": "string"
        }
      ],
      "payable": false,
      "stateMutability": "view",
      "type": "function"
    },
    {
      "constant": true,
      "inputs": [
        {
          "name": "k",
          "type": "int256"
        }
      ],
      "name": "intToString",
      "outputs": [
        {
          "name": "str",
          "type": "string"
        }
      ],
      "payable": false,
      "stateMutability": "view",
      "type": "function"
    }
  ],
  "bytecode": "0x606060405234156200001057600080fd5b4360058190555060326005540160038190555060326003540160048190555060016006819055506001600960006101000a81548160ff02191690831515021790555060078054806001018281620000689190620000af565b9160005260206000209001600060019091909150555060078054806001018281620000949190620000af565b91600052602060002090016000809091909150555062000106565b815481835581811511620000d957818360005260206000209182019101620000d89190620000de565b5b505050565b6200010391905b80821115620000ff576000816000905550600101620000e5565b5090565b90565b6133c580620001166000396000f3006060604052600436106100d0576000357c0100000000000000000000000000000000000000000000000000000000900463ffffffff1680630510a88a146100d55780630bb3e5101461010c5780630da19175146101a85780631ee1c6391461020f578063262c7e181461027657806357cec365146102e85780635fd8c7101461031157806360654e471461033e5780639201de551461036757806397f263d7146104075780639cbc87a31461046e578063b018013714610541578063f7c305ac1461056a578063ffc7d03114610593575b600080fd5b34156100e057600080fd5b6100f660048080359060200190919050506105bc565b6040518082815260200191505060405180910390f35b341561011757600080fd5b61012d60048080359060200190919050506105e0565b6040518080602001828103825283818151815260200191508051906020019080838360005b8381101561016d578082015181840152602081019050610152565b50505050905090810190601f16801561019a5780820380516001836020036101000a031916815260200191505b509250505060405180910390f35b6101f56004808035906020019082018035906020019080806020026020016040519081016040528093929190818152602001838360200280828437820191505050505050919050506107ca565b604051808215151515815260200191505060405180910390f35b61025c600480803590602001908201803590602001908080602002602001604051908101604052809392919081815260200183836020028082843782019150505050505091905050610cb1565b604051808215151515815260200191505060405180910390f35b341561028157600080fd5b6102ce600480803590602001908201803590602001908080602002602001604051908101604052809392919081815260200183836020028082843782019150505050505091905050611199565b604051808215151515815260200191505060405180910390f35b34156102f357600080fd5b6102fb6118cd565b6040518082815260200191505060405180910390f35b341561031c57600080fd5b6103246118d3565b604051808215151515815260200191505060405180910390f35b341561034957600080fd5b610351611a5a565b6040518082815260200191505060405180910390f35b341561037257600080fd5b61038c600480803560001916906020019091905050611a7e565b6040518080602001828103825283818151815260200191508051906020019080838360005b838110156103cc5780820151818401526020810190506103b1565b50505050905090810190601f1680156103f95780820380516001836020036101000a031916815260200191505b509250505060405180910390f35b610454600480803590602001908201803590602001908080602002602001604051908101604052809392919081815260200183836020028082843782019150505050505091905050611c6b565b604051808215151515815260200191505060405180910390f35b341561047957600080fd5b6104c6600480803590602001908201803590602001908080602002602001604051908101604052809392919081815260200183836020028082843782019150505050505091905050612152565b6040518080602001828103825283818151815260200191508051906020019080838360005b838110156105065780820151818401526020810190506104eb565b50505050905090810190601f1680156105335780820380516001836020036101000a031916815260200191505b509250505060405180910390f35b341561054c57600080fd5b610554612370565b6040518082815260200191505060405180910390f35b341561057557600080fd5b61057d612376565b6040518082815260200191505060405180910390f35b341561059e57600080fd5b6105a661237c565b6040518082815260200191505060405180910390f35b6007818154811015156105cb57fe5b90600052602060002090016000915090505481565b6105e8613075565b6000806105f3613089565b6000806105fe613089565b60008089121561061357886000039650610617565b8896505b60649550856040518059106106295750595b9080825280601f01601f19166020018201604052509450600093505b6000871415156106dc57600a8781151561065b57fe5b069250600a8781151561066a57fe5b049650826030017f01000000000000000000000000000000000000000000000000000000000000000285858060010196508151811015156106a757fe5b9060200101907effffffffffffffffffffffffffffffffffffffffffffffffffffffffffffff1916908160001a905350610645565b600184016040518059106106ed5750595b9080825280601f01601f19166020018201604052509150600090505b83811115156107b8578481850381518110151561072257fe5b9060200101517f010000000000000000000000000000000000000000000000000000000000000090047f010000000000000000000000000000000000000000000000000000000000000002828281518110151561077b57fe5b9060200101907effffffffffffffffffffffffffffffffffffffffffffffffffffffffffffff1916908160001a9053508080600101915050610709565b81975087975050505050505050919050565b6000806107d5613075565b6107dd61309d565b439250600354831015156107f4576107f3612382565b5b6107fd85612152565b9150661c6bf526340000341415610ca45760a0604051908101604052803373ffffffffffffffffffffffffffffffffffffffff1681526020016000600281111561084357fe5b815260200160001515815260200160036040518059106108605750595b90808252806020026020018201604052508152602001868152509050600180836040518082805190602001908083835b6020831015156108b55780518252602082019150602081019050602083039250610890565b6001836020036101000a038019825116818451168082178552505050505050905001915050908152602001604051809103902060006003811015156108f657fe5b015410801561097f575060006001836040518082805190602001908083835b60208310151561093a5780518252602082019150602081019050602083039250610915565b6001836020036101000a0380198251168184511680821785525050505050509050019150509081526020016040518091039020600160038110151561097b57fe5b0154145b8015610a05575060006001836040518082805190602001908083835b6020831015156109c0578051825260208201915060208101905060208303925061099b565b6001836020036101000a03801982511681845116808217855250505050505090500191505090815260200160405180910390206002600381101515610a0157fe5b0154145b1515610a1057600080fd5b600180836040518082805190602001908083835b602083101515610a495780518252602082019150602081019050602083039250610a24565b6001836020036101000a03801982511681845116808217855250505050505090500191505090815260200160405180910390206000600381101515610a8a57fe5b0160008282540192505081905550600080600654815260200190815260200160002060003373ffffffffffffffffffffffffffffffffffffffff1673ffffffffffffffffffffffffffffffffffffffff1681526020019081526020016000208054806001018281610afb91906130fc565b9160005260206000209060030201600083909190915060008201518160000160006101000a81548173ffffffffffffffffffffffffffffffffffffffff021916908373ffffffffffffffffffffffffffffffffffffffff16021790555060208201518160000160146101000a81548160ff02191690836002811115610b7c57fe5b021790555060408201518160000160156101000a81548160ff0219169083151502179055506060820151816001019080519060200190610bbd92919061312e565b506080820151816002019080519060200190610bda92919061317b565b50505050346007600654815481101515610bf057fe5b9060005260206000209001600082825401925050819055507fc708762cfec9c74f241d71525c7b9f8241d5f50ec08dd8c9b3e750d69b17bd798160000151826020015160065486604051808573ffffffffffffffffffffffffffffffffffffffff1673ffffffffffffffffffffffffffffffffffffffff168152602001846002811115610c7957fe5b60ff16815260200183815260200182815260200194505050505060405180910390a160019350610ca9565b600080fd5b505050919050565b600080610cbc613075565b610cc461309d565b43925060035483101515610cdb57610cda612382565b5b610ce485612152565b9150660e35fa931a000034141561118c5760a0604051908101604052803373ffffffffffffffffffffffffffffffffffffffff16815260200160016002811115610d2a57fe5b81526020016000151581526020016003604051805910610d475750595b9080825280602002602001820160405250815260200186815250905060006001836040518082805190602001908083835b602083101515610d9d5780518252602082019150602081019050602083039250610d78565b6001836020036101000a03801982511681845116808217855250505050505090500191505090815260200160405180910390206000600381101515610dde57fe5b0154148015610e67575060026001836040518082805190602001908083835b602083101515610e225780518252602082019150602081019050602083039250610dfd565b6001836020036101000a03801982511681845116808217855250505050505090500191505090815260200160405180910390206001600381101515610e6357fe5b0154105b8015610eed575060006001836040518082805190602001908083835b602083101515610ea85780518252602082019150602081019050602083039250610e83565b6001836020036101000a03801982511681845116808217855250505050505090500191505090815260200160405180910390206002600381101515610ee957fe5b0154145b1515610ef857600080fd5b600180836040518082805190602001908083835b602083101515610f315780518252602082019150602081019050602083039250610f0c565b6001836020036101000a03801982511681845116808217855250505050505090500191505090815260200160405180910390206001600381101515610f7257fe5b0160008282540192505081905550600080600654815260200190815260200160002060003373ffffffffffffffffffffffffffffffffffffffff1673ffffffffffffffffffffffffffffffffffffffff1681526020019081526020016000208054806001018281610fe391906130fc565b9160005260206000209060030201600083909190915060008201518160000160006101000a81548173ffffffffffffffffffffffffffffffffffffffff021916908373ffffffffffffffffffffffffffffffffffffffff16021790555060208201518160000160146101000a81548160ff0219169083600281111561106457fe5b021790555060408201518160000160156101000a81548160ff02191690831515021790555060608201518160010190805190602001906110a592919061312e565b5060808201518160020190805190602001906110c292919061317b565b505050503460076006548154811015156110d857fe5b9060005260206000209001600082825401925050819055507fc708762cfec9c74f241d71525c7b9f8241d5f50ec08dd8c9b3e750d69b17bd798160000151826020015160065486604051808573ffffffffffffffffffffffffffffffffffffffff1673ffffffffffffffffffffffffffffffffffffffff16815260200184600281111561116157fe5b60ff16815260200183815260200182815260200194505050505060405180910390a160019350611191565b600080fd5b505050919050565b60008060006111a661309d565b60004393507f47474d0f16d7d68df2566c30e09186ff4766b42f2ef9b2ea17a6b8ff53e2221d338786600654604051808573ffffffffffffffffffffffffffffffffffffffff1673ffffffffffffffffffffffffffffffffffffffff16815260200180602001848152602001838152602001828103825285818151815260200191508051906020019060200280838360005b83811015611253578082015181840152602081019050611238565b505050509050019550505050505060405180910390a16004548410151561127d5761127c612382565b5b600092505b600080600160065403815260200190815260200160002060003373ffffffffffffffffffffffffffffffffffffffff1673ffffffffffffffffffffffffffffffffffffffff168152602001908152602001600020805490508310156118bf57600080600160065403815260200190815260200160002060003373ffffffffffffffffffffffffffffffffffffffff1673ffffffffffffffffffffffffffffffffffffffff1681526020019081526020016000208381548110151561134257fe5b906000526020600020906003020160a060405190810160405290816000820160009054906101000a900473ffffffffffffffffffffffffffffffffffffffff1673ffffffffffffffffffffffffffffffffffffffff1673ffffffffffffffffffffffffffffffffffffffff1681526020016000820160149054906101000a900460ff1660028111156113d057fe5b60028111156113db57fe5b81526020016000820160159054906101000a900460ff161515151581526020016001820180548060200260200160405190810160405280929190818152602001828054801561144957602002820191906000526020600020905b815481526020019060010190808311611435575b50505050508152602001600282018054806020026020016040519081016040528092919081815260200182805480156114a557602002820191906000526020600020905b8154600019168152602001906001019080831161148d575b5050505050815250509150816040015115156118b257816080015160008151811015156114ce57fe5b90602001906020020151600019166114fd8760008151811015156114ee57fe5b906020019060200201516105e0565b336040518083805190602001908083835b602083101515611533578051825260208201915060208101905060208303925061150e565b6001836020036101000a0380198251168184511680821785525050505050509050018273ffffffffffffffffffffffffffffffffffffffff1673ffffffffffffffffffffffffffffffffffffffff166c010000000000000000000000000281526014019250505060405180910390206000191614801561169b5750816080015160018151811015156115c157fe5b90602001906020020151600019166115f08760018151811015156115e157fe5b906020019060200201516105e0565b336040518083805190602001908083835b6020831015156116265780518252602082019150602081019050602083039250611601565b6001836020036101000a0380198251168184511680821785525050505050509050018273ffffffffffffffffffffffffffffffffffffffff1673ffffffffffffffffffffffffffffffffffffffff166c0100000000000000000000000002815260140192505050604051809103902060001916145b801561178f5750816080015160028151811015156116b557fe5b90602001906020020151600019166116e48760028151811015156116d557fe5b906020019060200201516105e0565b336040518083805190602001908083835b60208310151561171a57805182526020820191506020810190506020830392506116f5565b6001836020036101000a0380198251168184511680821785525050505050509050018273ffffffffffffffffffffffffffffffffffffffff1673ffffffffffffffffffffffffffffffffffffffff166c0100000000000000000000000002815260140192505050604051809103902060001916145b905080156118b1576001826040019015159081151581525050858260600181905250600880548060010182816117c591906130fc565b9160005260206000209060030201600084909190915060008201518160000160006101000a81548173ffffffffffffffffffffffffffffffffffffffff021916908373ffffffffffffffffffffffffffffffffffffffff16021790555060208201518160000160146101000a81548160ff0219169083600281111561184657fe5b021790555060408201518160000160156101000a81548160ff021916908315150217905550606082015181600101908051906020019061188792919061312e565b5060808201518160020190805190602001906118a492919061317b565b50505050600194506118c4565b5b8280600101935050611282565b600094505b50505050919050565b60035481565b600080600260003373ffffffffffffffffffffffffffffffffffffffff1673ffffffffffffffffffffffffffffffffffffffff16815260200190815260200160002054905060008111156119e7576000600260003373ffffffffffffffffffffffffffffffffffffffff1673ffffffffffffffffffffffffffffffffffffffff168152602001908152602001600020819055503373ffffffffffffffffffffffffffffffffffffffff166108fc829081150290604051600060405180830381858888f1935050505015156119e65780600260003373ffffffffffffffffffffffffffffffffffffffff1673ffffffffffffffffffffffffffffffffffffffff168152602001908152602001600020819055505b5b7fbcf3be2d085a0c7c417736f3d8ac9677742eaafc8bea4dd1925f3e06220558df3382604051808373ffffffffffffffffffffffffffffffffffffffff1673ffffffffffffffffffffffffffffffffffffffff1681526020018281526020019250505060405180910390a1600191505090565b60006007600654815481101515611a6d57fe5b906000526020600020900154905090565b611a86613075565b611a8e613089565b6000806000611a9b613089565b6020604051805910611aaa5750595b9080825280601f01601f1916602001820160405250945060009350600092505b6020831015611b88578260080260020a876001900402600102915060007f010000000000000000000000000000000000000000000000000000000000000002827effffffffffffffffffffffffffffffffffffffffffffffffffffffffffffff1916141515611b7b57818585815181101515611b4257fe5b9060200101907effffffffffffffffffffffffffffffffffffffffffffffffffffffffffffff1916908160001a90535083806001019450505b8280600101935050611aca565b83604051805910611b965750595b9080825280601f01601f19166020018201604052509050600092505b83831015611c5e578483815181101515611bc857fe5b9060200101517f010000000000000000000000000000000000000000000000000000000000000090047f0100000000000000000000000000000000000000000000000000000000000000028184815181101515611c2157fe5b9060200101907effffffffffffffffffffffffffffffffffffffffffffffffffffffffffffff1916908160001a9053508280600101935050611bb2565b8095505050505050919050565b600080611c76613075565b611c7e61309d565b43925060035483101515611c9557611c94612382565b5b611c9e85612152565b915066071afd498d00003414156121455760a0604051908101604052803373ffffffffffffffffffffffffffffffffffffffff168152602001600280811115611ce357fe5b81526020016000151581526020016003604051805910611d005750595b9080825280602002602001820160405250815260200186815250905060006001836040518082805190602001908083835b602083101515611d565780518252602082019150602081019050602083039250611d31565b6001836020036101000a03801982511681845116808217855250505050505090500191505090815260200160405180910390206000600381101515611d9757fe5b0154148015611e20575060006001836040518082805190602001908083835b602083101515611ddb5780518252602082019150602081019050602083039250611db6565b6001836020036101000a03801982511681845116808217855250505050505090500191505090815260200160405180910390206001600381101515611e1c57fe5b0154145b8015611ea6575060046001836040518082805190602001908083835b602083101515611e615780518252602082019150602081019050602083039250611e3c565b6001836020036101000a03801982511681845116808217855250505050505090500191505090815260200160405180910390206002600381101515611ea257fe5b0154105b1515611eb157600080fd5b600180836040518082805190602001908083835b602083101515611eea5780518252602082019150602081019050602083039250611ec5565b6001836020036101000a03801982511681845116808217855250505050505090500191505090815260200160405180910390206002600381101515611f2b57fe5b0160008282540192505081905550600080600654815260200190815260200160002060003373ffffffffffffffffffffffffffffffffffffffff1673ffffffffffffffffffffffffffffffffffffffff1681526020019081526020016000208054806001018281611f9c91906130fc565b9160005260206000209060030201600083909190915060008201518160000160006101000a81548173ffffffffffffffffffffffffffffffffffffffff021916908373ffffffffffffffffffffffffffffffffffffffff16021790555060208201518160000160146101000a81548160ff0219169083600281111561201d57fe5b021790555060408201518160000160156101000a81548160ff021916908315150217905550606082015181600101908051906020019061205e92919061312e565b50608082015181600201908051906020019061207b92919061317b565b5050505034600760065481548110151561209157fe5b9060005260206000209001600082825401925050819055507fc708762cfec9c74f241d71525c7b9f8241d5f50ec08dd8c9b3e750d69b17bd798160000151826020015160065486604051808573ffffffffffffffffffffffffffffffffffffffff1673ffffffffffffffffffffffffffffffffffffffff16815260200184600281111561211a57fe5b60ff16815260200183815260200182815260200194505050505060405180910390a16001935061214a565b600080fd5b505050919050565b61215a613075565b612162613089565b600080600080612170613089565b60208851026040518059106121825750595b9080825280601f01601f19166020018201604052509550600093505b875184101561228c57600092505b602083101561227f578260080260020a88858151811015156121ca57fe5b906020019060200201516001900402600102915060007f010000000000000000000000000000000000000000000000000000000000000002827effffffffffffffffffffffffffffffffffffffffffffffffffffffffffffff19161415156122725781868681518110151561223b57fe5b9060200101907effffffffffffffffffffffffffffffffffffffffffffffffffffffffffffff1916908160001a9053506001850194505b82806001019350506121ac565b838060010194505061219e565b8460405180591061229a5750595b9080825280601f01601f19166020018201604052509050600093505b848410156123625785848151811015156122cc57fe5b9060200101517f010000000000000000000000000000000000000000000000000000000000000090047f010000000000000000000000000000000000000000000000000000000000000002818581518110151561232557fe5b9060200101907effffffffffffffffffffffffffffffffffffffffffffffffffffffffffffff1916908160001a90535083806001019450506122b6565b809650505050505050919050565b60045481565b60055481565b60065481565b600061238c6131ce565b60008061239761309d565b4394507f2190d6785fd9fafab68c41fa8b300cc453213314969e35645239a51faf9221cd85600654604051808381526020018281526020019250505060405180910390a160326003600082825401925050819055506007805480600101828161240091906131e2565b916000526020600020900160008090919091505550600960009054906101000a900460ff161515612dc657612433612dfb565b9350600760016006540381548110151561244957fe5b9060005260206000209001549250600091505b600880549050821015612d595760088281548110151561247857fe5b906000526020600020906003020160a060405190810160405290816000820160009054906101000a900473ffffffffffffffffffffffffffffffffffffffff1673ffffffffffffffffffffffffffffffffffffffff1673ffffffffffffffffffffffffffffffffffffffff1681526020016000820160149054906101000a900460ff16600281111561250657fe5b600281111561251157fe5b81526020016000820160159054906101000a900460ff161515151581526020016001820180548060200260200160405190810160405280929190818152602001828054801561257f57602002820191906000526020600020905b81548152602001906001019080831161256b575b50505050508152602001600282018054806020026020016040519081016040528092919081815260200182805480156125db57602002820191906000526020600020905b815460001916815260200190600101908083116125c3575b50505050508152505090508360008151811015156125f557fe5b906020019060200201518160600151600081518110151561261257fe5b90602001906020020151141561285e576000600281111561262f57fe5b8160200151600281111561263f57fe5b14156126e05760028381151561265157fe5b0460026000836000015173ffffffffffffffffffffffffffffffffffffffff1673ffffffffffffffffffffffffffffffffffffffff168152602001908152602001600020600082825401925050819055506002838115156126ae57fe5b0460076001600654038154811015156126c357fe5b906000526020600020900160008282540392505081905550612859565b600160028111156126ed57fe5b816020015160028111156126fd57fe5b141561279e5760048381151561270f57fe5b0460026000836000015173ffffffffffffffffffffffffffffffffffffffff1673ffffffffffffffffffffffffffffffffffffffff1681526020019081526020016000206000828254019250508190555060048381151561276c57fe5b04600760016006540381548110151561278157fe5b906000526020600020900160008282540392505081905550612858565b6002808111156127aa57fe5b816020015160028111156127ba57fe5b1415612857576008838115156127cc57fe5b0460026000836000015173ffffffffffffffffffffffffffffffffffffffff1673ffffffffffffffffffffffffffffffffffffffff1681526020019081526020016000206000828254019250508190555060088381151561282957fe5b04600760016006540381548110151561283e57fe5b9060005260206000209001600082825403925050819055505b5b5b612d4c565b83600181518110151561286d57fe5b906020019060200201518160600151600181518110151561288a57fe5b906020019060200201511415612ad657600060028111156128a757fe5b816020015160028111156128b757fe5b1415612958576004838115156128c957fe5b0460026000836000015173ffffffffffffffffffffffffffffffffffffffff1673ffffffffffffffffffffffffffffffffffffffff1681526020019081526020016000206000828254019250508190555060048381151561292657fe5b04600760016006540381548110151561293b57fe5b906000526020600020900160008282540392505081905550612ad1565b6001600281111561296557fe5b8160200151600281111561297557fe5b1415612a165760088381151561298757fe5b0460026000836000015173ffffffffffffffffffffffffffffffffffffffff1673ffffffffffffffffffffffffffffffffffffffff168152602001908152602001600020600082825401925050819055506008838115156129e457fe5b0460076001600654038154811015156129f957fe5b906000526020600020900160008282540392505081905550612ad0565b600280811115612a2257fe5b81602001516002811115612a3257fe5b1415612acf57601083811515612a4457fe5b0460026000836000015173ffffffffffffffffffffffffffffffffffffffff1673ffffffffffffffffffffffffffffffffffffffff16815260200190815260200160002060008282540192505081905550601083811515612aa157fe5b046007600160065403815481101515612ab657fe5b9060005260206000209001600082825403925050819055505b5b5b612d4b565b836002815181101515612ae557fe5b9060200190602002015181606001516002815181101515612b0257fe5b906020019060200201511415612d4a5760006002811115612b1f57fe5b81602001516002811115612b2f57fe5b1415612bd057600883811515612b4157fe5b0460026000836000015173ffffffffffffffffffffffffffffffffffffffff1673ffffffffffffffffffffffffffffffffffffffff16815260200190815260200160002060008282540192505081905550600883811515612b9e57fe5b046007600160065403815481101515612bb357fe5b906000526020600020900160008282540392505081905550612d49565b60016002811115612bdd57fe5b81602001516002811115612bed57fe5b1415612c8e57601083811515612bff57fe5b0460026000836000015173ffffffffffffffffffffffffffffffffffffffff1673ffffffffffffffffffffffffffffffffffffffff16815260200190815260200160002060008282540192505081905550601083811515612c5c57fe5b046007600160065403815481101515612c7157fe5b906000526020600020900160008282540392505081905550612d48565b600280811115612c9a57fe5b81602001516002811115612caa57fe5b1415612d4757602083811515612cbc57fe5b0460026000836000015173ffffffffffffffffffffffffffffffffffffffff1673ffffffffffffffffffffffffffffffffffffffff16815260200190815260200160002060008282540192505081905550602083811515612d1957fe5b046007600160065403815481101515612d2e57fe5b9060005260206000209001600082825403925050819055505b5b5b5b5b5b818060010192505061245c565b6007600160065403815481101515612d6d57fe5b9060005260206000209001546007600654815481101515612d8a57fe5b90600052602060002090016000828254019250508190555060086000612db0919061320e565b6032600460008282540192505081905550612de2565b6000600960006101000a81548160ff0219169083151502179055505b6006600081548092919060010191905055505050505050565b612e036131ce565b612e0b6131ce565b60006003604051805910612e1c5750595b9080825280602002602001820160405250915060086000815481101515612e3f57fe5b90600052602060002090600302016001016000815481101515612e5e57fe5b906000526020600020900154826000815181101515612e7957fe5b906020019060200201818152505060086000815481101515612e9757fe5b90600052602060002090600302016001016001815481101515612eb657fe5b906000526020600020900154826001815181101515612ed157fe5b906020019060200201818152505060086000815481101515612eef57fe5b90600052602060002090600302016001016002815481101515612f0e57fe5b906000526020600020900154826002815181101515612f2957fe5b9060200190602002018181525050600190505b60088054905081101561306d57600881815481101515612f5857fe5b90600052602060002090600302016001016000815481101515612f7757fe5b906000526020600020900154826000815181101515612f9257fe5b9060200190602002018181511891508181525050600881815481101515612fb557fe5b90600052602060002090600302016001016001815481101515612fd457fe5b906000526020600020900154826001815181101515612fef57fe5b906020019060200201818151189150818152505060088181548110151561301257fe5b9060005260206000209060030201600101600281548110151561303157fe5b90600052602060002090015482600281518110151561304c57fe5b90602001906020020181815118915081815250508080600101915050612f3c565b819250505090565b602060405190810160405280600081525090565b602060405190810160405280600081525090565b60a060405190810160405280600073ffffffffffffffffffffffffffffffffffffffff168152602001600060028111156130d357fe5b81526020016000151581526020016130e9613232565b81526020016130f6613246565b81525090565b81548183558181151161312957600302816003028360005260206000209182019101613128919061325a565b5b505050565b82805482825590600052602060002090810192821561316a579160200282015b8281111561316957825182559160200191906001019061314e565b5b50905061317791906132e8565b5090565b8280548282559060005260206000209081019282156131bd579160200282015b828111156131bc57825182906000191690559160200191906001019061319b565b5b5090506131ca919061330d565b5090565b602060405190810160405280600081525090565b815481835581811511613209578183600052602060002091820191016132089190613332565b5b505050565b508054600082556003029060005260206000209081019061322f919061325a565b50565b602060405190810160405280600081525090565b602060405190810160405280600081525090565b6132e591905b808211156132e157600080820160006101000a81549073ffffffffffffffffffffffffffffffffffffffff02191690556000820160146101000a81549060ff02191690556000820160156101000a81549060ff02191690556001820160006132c89190613357565b6002820160006132d89190613378565b50600301613260565b5090565b90565b61330a91905b808211156133065760008160009055506001016132ee565b5090565b90565b61332f91905b8082111561332b576000816000905550600101613313565b5090565b90565b61335491905b80821115613350576000816000905550600101613338565b5090565b90565b508054600082559060005260206000209081019061337591906132e8565b50565b5080546000825590600052602060002090810190613396919061330d565b505600a165627a7a723058200915b31d206e20d05761c7a595738a2f7df15750a2ede84b52adf55ad14a531e0029",
  "source": "pragma solidity ^0.4.4;\n\n\ncontract Lottery {\n\n\tenum TicketType { Full, Half, Quarter }\t\t// types of Ticket\n\n\tstruct Ticket {\n\t\taddress owner;\t\t\t\t// purchaser of the Ticket\n\t\tTicketType ttype;\t\t\t// type of the Ticket\n\t\tbool is_verified;\t\t\t// verifying flag for the Ticket\n\t\tint[] rand_nums;\t\t\t// random numbers submitted by purchaser to verify with hashes\n\t\tbytes32[] rand_hashes;\t\t// hashes of random numbers submitted by purchaser while a ticket purchasing\n\t}\n\n\t// constant ticket prices\n\tuint constant full_pay = 8 finney;\n\tuint constant half_pay = 4 finney;\n\tuint constant quarter_pay = 2 finney;\n\n\t\n\tuint constant block_period = 50;\t// constant block period\n\n\n\t/* \t\n\t\t*********************************************************************\n\t\t*\t\t\t\t\t\t\t\t\t\t\t\t\t\t\t\t\t*\n\t\t*\t\t\t\t\t\t\tVARIABLES\t\t\t\t\t\t\t\t*\n\t\t*\t\t\t\t\t\t\t\t\t\t\t\t\t\t\t\t\t*\n\t\t*********************************************************************\n\t*/\n\n\tmapping(uint => mapping(address => Ticket[])) purchased_tickets;\t// map purchaser to Tickets he buy, for indexed lottery\n\tmapping(string => uint[3]) used_randoms;\t\t\t// keep random numbers to prevent use again, for each TicketType\n\tmapping(address => uint) balance_of_purchasers;\t\t// balance of purchasers' in the contract\n\n\n\tuint public purchase_end;\t// block number of purchase stage end\n\tuint public\treveal_end;\t\t// block number of reveal stage end\n\tuint public initial_block_num;\t// block number of the contract at the start\n    uint public lottery_no;\t\t// current lottery number\n\tuint[] public lottery_balance;\t// current balances of lotteries\n\n\t\n    Ticket[] revealed_tickets;\t// revealed ticket list\n\n    bool first_purchase;\n\n\n    /* \t\n\t\t*********************************************************************\n\t\t*\t\t\t\t\t\t\t\t\t\t\t\t\t\t\t\t\t*\n\t\t*\t\t\t\t\t\t\tFUNCTIONS\t\t\t\t\t\t\t\t*\n\t\t*\t\t\t\t\t\t\t\t\t\t\t\t\t\t\t\t\t*\n\t\t*********************************************************************\n\t*/\n\n\tfunction Lottery() {\n\t\tinitial_block_num = block.number;\n\t\tpurchase_end =\tinitial_block_num +  block_period;\n\t\treveal_end = purchase_end + block_period;\n\t\tlottery_no = 1;\n\t\tfirst_purchase = true;\n\t\tlottery_balance.push(1);\n\t\tlottery_balance.push(0);\n\t}\n\n\n\tfunction buyFullTicket(bytes32[] _rand_hashes) public payable returns (bool) {\n\t\tuint block_num = block.number;\n\n\n\t\tif (block_num >= purchase_end) {\n\t\t\tupdateLottery();\n\t\t}\n\n\t\t// concatenation of three hashes as string\n\t\tstring memory concat_hash = bytes32ArrayToString(_rand_hashes);\n\n\t\tif (msg.value == full_pay) {\n\n\t\t\tTicket memory ticket = Ticket({\n\t\t\t\towner: msg.sender,\n\t\t\t\trand_hashes: _rand_hashes,\n\t\t\t\tttype: TicketType.Full,\n\t\t\t\tis_verified: false,\n\t\t\t\trand_nums: new int[](3)\t\t\t\n\t\t\t});\n\n\n\t\t\t/* \n\t\t\t\tnumber of sold Full tickets should be smaller than 1 (there can be only one Full ticket)\n\t\t\t\tthese three random numbers must not for other TicketTypes, since trying buy Full ticket\n\t\t\t*/\n\t\t\tif ( !(used_randoms[concat_hash][0] < 1 && \n\t\t\t\t used_randoms[concat_hash][1] == 0 &&\n\t\t\t\t used_randoms[concat_hash][2] == 0 )){\n\t\t\t\trevert();\n\t\t\t} else {\n\n\t\t\t\tused_randoms[concat_hash][0] += 1;\n\n\t\t\t\tpurchased_tickets[lottery_no][msg.sender].push(ticket);\n\t\t\t\tlottery_balance[lottery_no] += msg.value;\n\n\t\t\t\temit TicketPurchased(ticket.owner, ticket.ttype, lottery_no, block_num);\n\t\t\t\treturn true;\n\t\t\t}\n\n\t\t} else {\n\t\t\trevert();\n\t\t}\n\t}\n\n\n\tfunction buyHalfTicket(bytes32[] _rand_hashes) public payable returns (bool) {\n\t\tuint block_num = block.number;\n\n\n\t\tif (block_num >= purchase_end) {\n\t\t\tupdateLottery();\n\t\t}\n\n\t\t// concatenation of three hashes as string\n\t\tstring memory concat_hash = bytes32ArrayToString(_rand_hashes);\n\n\t\tif (msg.value == half_pay) {\n\n\t\t\tTicket memory ticket = Ticket({\n\t\t\t\towner: msg.sender,\n\t\t\t\trand_hashes: _rand_hashes,\n\t\t\t\tttype: TicketType.Half,\n\t\t\t\tis_verified: false,\n\t\t\t\trand_nums: new int[](3)\t\t\t\n\t\t\t});\n\n\n\t\t\t/* \n\t\t\t\tnumber of sold Full tickets should be smaller than 1 (there can be only one Full ticket)\n\t\t\t\tthese three random numbers must not for other TicketTypes, since trying buy Full ticket\n\t\t\t*/\n\t\t\tif ( !(used_randoms[concat_hash][0] == 0 && \n\t\t\t\t used_randoms[concat_hash][1] < 2 &&\n\t\t\t\t used_randoms[concat_hash][2] == 0 )){\n\t\t\t\trevert();\n\t\t\t} else {\n\n\t\t\t\tused_randoms[concat_hash][1] += 1;\n\n\t\t\t\tpurchased_tickets[lottery_no][msg.sender].push(ticket);\n\t\t\t\tlottery_balance[lottery_no] += msg.value;\n\n\t\t\t\temit TicketPurchased(ticket.owner, ticket.ttype, lottery_no, block_num);\n\t\t\t\treturn true;\n\t\t\t}\n\n\t\t} else {\n\t\t\trevert();\n\t\t}\n\t}\n\n\n\tfunction buyQuarterTicket(bytes32[] _rand_hashes) public payable returns (bool) {\n\t\tuint block_num = block.number;\n\n\n\t\tif (block_num >= purchase_end) {\n\t\t\tupdateLottery();\n\t\t}\n\n\t\t// concatenation of three hashes as string\n\t\tstring memory concat_hash = bytes32ArrayToString(_rand_hashes);\n\n\t\tif (msg.value == quarter_pay) {\n\n\t\t\tTicket memory ticket = Ticket({\n\t\t\t\towner: msg.sender,\n\t\t\t\trand_hashes: _rand_hashes,\n\t\t\t\tttype: TicketType.Quarter,\n\t\t\t\tis_verified: false,\n\t\t\t\trand_nums: new int[](3)\t\t\t\n\t\t\t});\n\n\n\t\t\t/* \n\t\t\t\tnumber of sold Full tickets should be smaller than 1 (there can be only one Full ticket)\n\t\t\t\tthese three random numbers must not for other TicketTypes, since trying buy Full ticket\n\t\t\t*/\n\t\t\tif ( !(used_randoms[concat_hash][0] == 0 && \n\t\t\t\t used_randoms[concat_hash][1] == 0 &&\n\t\t\t\t used_randoms[concat_hash][2] < 4 )){\n\t\t\t\trevert();\n\t\t\t} else {\n\n\t\t\t\tused_randoms[concat_hash][2] += 1;\n\n\t\t\t\tpurchased_tickets[lottery_no][msg.sender].push(ticket);\n\t\t\t\tlottery_balance[lottery_no] += msg.value;\n\n\t\t\t\temit TicketPurchased(ticket.owner, ticket.ttype, lottery_no, block_num);\n\t\t\t\treturn true;\n\t\t\t}\n\n\t\t} else {\n\t\t\trevert();\n\t\t}\n\t}\n\n\n\tfunction revealTicket(int[] _rand_nums) public returns(bool) {\n\t\tuint block_num = block.number;\n\n\t\temit RevealTicket(msg.sender, _rand_nums, block_num, lottery_no);\n\n\n\t\tif (block_num >= reveal_end) {\n\t\t\tupdateLottery();\n\t\t}\n\n\n\t\t// verify three random numbers of purchaser with the ticket via hashes\n\t\tfor (uint i = 0; i < purchased_tickets[lottery_no-1][msg.sender].length; i++){\n\t\t\tTicket memory ticket = purchased_tickets[lottery_no-1][msg.sender][i];\n\t\t\tif (!ticket.is_verified){\n\n\t\t\t\tbool verify = ( keccak256(intToString(_rand_nums[0]), msg.sender) == ticket.rand_hashes[0] && \n\t\t\t\t\t\t\t\tkeccak256(intToString(_rand_nums[1]), msg.sender) == ticket.rand_hashes[1] && \n\t\t\t\t\t\t\t\tkeccak256(intToString(_rand_nums[2]), msg.sender) == ticket.rand_hashes[2] );\n\t\t\t\tif (verify) {\n\t\t\t\t\tticket.is_verified = true;\n\t\t\t\t\tticket.rand_nums = _rand_nums;\n\t\t\t\t\trevealed_tickets.push(ticket);\n\t\t\t\t\treturn true;\n\t\t\t\t}\n\t\t\t}\n\t\t}\n\t\treturn false;\n\t}\n\n\n\tfunction updateLottery() private {\n\n\n\t\tuint block_num = block.number;\n\n\t\temit UpdateLottery(block_num, lottery_no);\n\n\t\tpurchase_end += block_period;\n\t\tlottery_balance.push(0);\n\t\t\n\n\t\tif (!first_purchase){\n\n\t\t\t// determine winner random numbers with XOR\n\t\t\tint[] memory winner_numbers = random();\n\n\t\t\tuint temp_balance = lottery_balance[lottery_no-1];\n\t\t\tfor (uint i = 0; i < revealed_tickets.length; i++) {\n\n\t\t\t\tTicket memory ticket = revealed_tickets[i];\n\n\t\t\t\tif (ticket.rand_nums[0] == winner_numbers[0]) {\n\t\t\t\t\tif (ticket.ttype == TicketType.Full) {\n\t\t\t\t\t\tbalance_of_purchasers[ticket.owner] += temp_balance/2;\n\t\t\t\t\t\tlottery_balance[lottery_no-1] -= temp_balance/2;\n\t\t\t\t\t} else if (ticket.ttype == TicketType.Half) {\n\t\t\t\t\t\tbalance_of_purchasers[ticket.owner] += temp_balance/4;\n\t\t\t\t\t\tlottery_balance[lottery_no-1] -= temp_balance/4;\n\t\t\t\t\t} else if (ticket.ttype == TicketType.Quarter) {\n\t\t\t\t\t\tbalance_of_purchasers[ticket.owner] += temp_balance/8;\n\t\t\t\t\t\tlottery_balance[lottery_no-1] -= temp_balance/8;\n\t\t\t\t\t}\n\t\t\t\t}\n\n\t\t\t\telse if (ticket.rand_nums[1] == winner_numbers[1]) {\n\t\t\t\t\tif (ticket.ttype == TicketType.Full) {\n\t\t\t\t\t\tbalance_of_purchasers[ticket.owner] += temp_balance/4;\n\t\t\t\t\t\tlottery_balance[lottery_no-1] -= temp_balance/4;\n\t\t\t\t\t} else if (ticket.ttype == TicketType.Half) {\n\t\t\t\t\t\tbalance_of_purchasers[ticket.owner] += temp_balance/8;\n\t\t\t\t\t\tlottery_balance[lottery_no-1] -= temp_balance/8;\n\t\t\t\t\t} else if (ticket.ttype == TicketType.Quarter) {\n\t\t\t\t\t\tbalance_of_purchasers[ticket.owner] += temp_balance/16;\n\t\t\t\t\t\tlottery_balance[lottery_no-1] -= temp_balance/16;\n\t\t\t\t\t}\n\t\t\t\t}\n\n\t\t\t\telse if (ticket.rand_nums[2] == winner_numbers[2]) {\n\t\t\t\t\tif (ticket.ttype == TicketType.Full) {\n\t\t\t\t\t\tbalance_of_purchasers[ticket.owner] += temp_balance/8;\n\t\t\t\t\t\tlottery_balance[lottery_no-1] -= temp_balance/8;\n\t\t\t\t\t} else if (ticket.ttype == TicketType.Half) {\n\t\t\t\t\t\tbalance_of_purchasers[ticket.owner] += temp_balance/16;\n\t\t\t\t\t\tlottery_balance[lottery_no-1] -= temp_balance/16;\n\t\t\t\t\t} else if (ticket.ttype == TicketType.Quarter) {\n\t\t\t\t\t\tbalance_of_purchasers[ticket.owner] += temp_balance/32;\n\t\t\t\t\t\tlottery_balance[lottery_no-1] -= temp_balance/32;\n\t\t\t\t\t}\n\t\t\t\t}\n\t\t\t}\n\t\t\tlottery_balance[lottery_no] += lottery_balance[lottery_no-1];\n\n\t\t\tdelete revealed_tickets;\n\n\t\t\treveal_end += block_period;\n\t\t\t\n\t\t} else {\n\t\t\tfirst_purchase = false;\n\t\t}\n\n\n\t\tlottery_no++;\n\t}\n\n\n\n\tfunction getLotteryBalance() constant public returns(uint) {\n    \treturn lottery_balance[lottery_no];\n  \t}\n\n  \t// send the balance of purchaser to his account\n\tfunction withdrawBalance() public returns (bool success) {\n\t\tuint amnt;\n\t\tamnt = balance_of_purchasers[msg.sender];\n\t\tif ( amnt > 0 ) { \n\t\t\tbalance_of_purchasers[msg.sender] = 0;\n\t\t\tif (!msg.sender.send(amnt)) {\n\t\t\t\tbalance_of_purchasers[msg.sender] = amnt;\n\t\t\t}\n\t\t}\n\t\t\n\t\temit AwardWinnings(msg.sender, amnt);\n\t\t//resetLottery();\n\t\treturn true;\n\t}\n\n\n\tfunction random() private view returns (int[]) {\n\t\tint[] memory winner_numbers = new int[](3);\n\n\t\twinner_numbers[0] = revealed_tickets[0].rand_nums[0];\n\t\twinner_numbers[1] = revealed_tickets[0].rand_nums[1];\n\t\twinner_numbers[2] = revealed_tickets[0].rand_nums[2];\n\t\tfor (uint i = 1; i < revealed_tickets.length; i++) {\n\t\t\twinner_numbers[0] ^= revealed_tickets[i].rand_nums[0];\n\t\t\twinner_numbers[1] ^= revealed_tickets[i].rand_nums[1];\n\t\t\twinner_numbers[2] ^= revealed_tickets[i].rand_nums[2];\n\t\t}\n\n\t\treturn winner_numbers;\n\t}\n\n\n\tfunction bytes32ToString(bytes32 x) constant returns (string) {\n        bytes memory bytesString = new bytes(32);\n        uint charCount = 0;\n        for (uint j = 0; j < 32; j++) {\n            byte char = byte(bytes32(uint(x) * 2 ** (8 * j)));\n            if (char != 0) {\n                bytesString[charCount] = char;\n                charCount++;\n            }\n        }\n        bytes memory bytesStringTrimmed = new bytes(charCount);\n        for (j = 0; j < charCount; j++) {\n            bytesStringTrimmed[j] = bytesString[j];\n        }\n        return string(bytesStringTrimmed);\n    }\n\n    function bytes32ArrayToString(bytes32[] data) constant returns (string) {\n        bytes memory bytesString = new bytes(data.length * 32);\n        uint urlLength;\n        for (uint i=0; i<data.length; i++) {\n            for (uint j=0; j<32; j++) {\n                byte char = byte(bytes32(uint(data[i]) * 2 ** (8 * j)));\n                if (char != 0) {\n                    bytesString[urlLength] = char;\n                    urlLength += 1;\n                }\n            }\n        }\n        bytes memory bytesStringTrimmed = new bytes(urlLength);\n        for (i=0; i<urlLength; i++) {\n            bytesStringTrimmed[i] = bytesString[i];\n        }\n        return string(bytesStringTrimmed);\n    }\n\n    function intToString(int k) constant returns (string str) {\n    \tuint v;\n    \tif(k < 0) {\n    \t\tv = uint(-k);\n\t\t} else {\n    \t\tv = uint(k);\n\t\t}\n        uint maxlength = 100;\n        bytes memory reversed = new bytes(maxlength);\n        uint i = 0;\n        while (v != 0) {\n            uint remainder = v % 10;\n            v = v / 10;\n            reversed[i++] = byte(48 + remainder);\n        }\n        bytes memory s = new bytes(i + 1);\n        for (uint j = 0; j <= i; j++) {\n            s[j] = reversed[i - j];\n        }\n        str = string(s);\n        return str;\n    }\n\n\n\n    /* \t\n\t\t*********************************************************************\n\t\t*\t\t\t\t\t\t\t\t\t\t\t\t\t\t\t\t\t*\n\t\t*\t\t\t\t\t\t\t\tEVENTS\t\t\t\t\t\t\t\t*\n\t\t*\t\t\t\t\t\t\t\t\t\t\t\t\t\t\t\t\t*\n\t\t*********************************************************************\n\t*/\n\n\tevent TicketPurchased(address owner, TicketType ttype, uint lottery_no, uint block_num);\n\n\tevent UpdateLottery(uint block_num, uint lottery_no);\n\n\tevent RevealTicket(address owner, int[] _rand_nums, uint block_num, uint lottery_no);\n\n\tevent AwardWinnings(address owner, uint amnt);\n\n\t// Event for lottery reset\n\t//event ResetLottery();\n\n}\n",
  "sourcePath": "/home/frkn/Desktop/Autonomous-Decentralized-Lottery/contracts/Lottery.sol",
  "compiler": {
    "name": "solc",
    "version": "0.4.21+commit.dfe3193c.Emscripten.clang"
  },
  "schemaVersion": "2.0.0",
  "updatedAt": "2018-04-23T12:49:58.196Z"
}