{
  "contractName": "Lottery",
  "abi": [
    {
      "constant": true,
      "inputs": [
        {
          "name": "",
          "type": "uint256"
        }
      ],
      "name": "lottery_balance",
      "outputs": [
        {
          "name": "",
          "type": "uint256"
        }
      ],
      "payable": false,
      "stateMutability": "view",
      "type": "function"
    },
    {
      "constant": true,
      "inputs": [],
      "name": "purchase_end",
      "outputs": [
        {
          "name": "",
          "type": "uint256"
        }
      ],
      "payable": false,
      "stateMutability": "view",
      "type": "function"
    },
    {
      "constant": true,
      "inputs": [],
      "name": "reveal_end",
      "outputs": [
        {
          "name": "",
          "type": "uint256"
        }
      ],
      "payable": false,
      "stateMutability": "view",
      "type": "function"
    },
    {
      "constant": true,
      "inputs": [],
      "name": "initial_block_num",
      "outputs": [
        {
          "name": "",
          "type": "uint256"
        }
      ],
      "payable": false,
      "stateMutability": "view",
      "type": "function"
    },
    {
      "constant": true,
      "inputs": [],
      "name": "lottery_no",
      "outputs": [
        {
          "name": "",
          "type": "uint256"
        }
      ],
      "payable": false,
      "stateMutability": "view",
      "type": "function"
    },
    {
      "inputs": [],
      "payable": false,
      "stateMutability": "nonpayable",
      "type": "constructor"
    },
    {
      "anonymous": false,
      "inputs": [
        {
          "indexed": false,
          "name": "owner",
          "type": "address"
        },
        {
          "indexed": false,
          "name": "ttype",
          "type": "uint8"
        },
        {
          "indexed": false,
          "name": "lottery_no",
          "type": "uint256"
        },
        {
          "indexed": false,
          "name": "block_num",
          "type": "uint256"
        }
      ],
      "name": "TicketPurchased",
      "type": "event"
    },
    {
      "anonymous": false,
      "inputs": [
        {
          "indexed": false,
          "name": "block_num",
          "type": "uint256"
        },
        {
          "indexed": false,
          "name": "lottery_no",
          "type": "uint256"
        }
      ],
      "name": "UpdateLottery",
      "type": "event"
    },
    {
      "anonymous": false,
      "inputs": [
        {
          "indexed": false,
          "name": "owner",
          "type": "address"
        },
        {
          "indexed": false,
          "name": "_rand_nums",
          "type": "int256[]"
        },
        {
          "indexed": false,
          "name": "block_num",
          "type": "uint256"
        },
        {
          "indexed": false,
          "name": "lottery_no",
          "type": "uint256"
        }
      ],
      "name": "RevealTicket",
      "type": "event"
    },
    {
      "constant": false,
      "inputs": [
        {
          "name": "_rand_hashes",
          "type": "bytes32[]"
        }
      ],
      "name": "buyFullTicket",
      "outputs": [
        {
          "name": "",
          "type": "bool"
        }
      ],
      "payable": true,
      "stateMutability": "payable",
      "type": "function"
    },
    {
      "constant": false,
      "inputs": [
        {
          "name": "_rand_hashes",
          "type": "bytes32[]"
        }
      ],
      "name": "buyHalfTicket",
      "outputs": [
        {
          "name": "",
          "type": "bool"
        }
      ],
      "payable": true,
      "stateMutability": "payable",
      "type": "function"
    },
    {
      "constant": false,
      "inputs": [
        {
          "name": "_rand_hashes",
          "type": "bytes32[]"
        }
      ],
      "name": "buyQuarterTicket",
      "outputs": [
        {
          "name": "",
          "type": "bool"
        }
      ],
      "payable": true,
      "stateMutability": "payable",
      "type": "function"
    },
    {
      "constant": false,
      "inputs": [
        {
          "name": "_rand_nums",
          "type": "int256[]"
        }
      ],
      "name": "revealTicket",
      "outputs": [
        {
          "name": "",
          "type": "bool"
        }
      ],
      "payable": false,
      "stateMutability": "nonpayable",
      "type": "function"
    },
    {
      "constant": true,
      "inputs": [],
      "name": "getLotteryBalance",
      "outputs": [
        {
          "name": "",
          "type": "uint256"
        }
      ],
      "payable": false,
      "stateMutability": "view",
      "type": "function"
    },
    {
      "constant": true,
      "inputs": [
        {
          "name": "x",
          "type": "bytes32"
        }
      ],
      "name": "bytes32ToString",
      "outputs": [
        {
          "name": "",
          "type": "string"
        }
      ],
      "payable": false,
      "stateMutability": "view",
      "type": "function"
    },
    {
      "constant": true,
      "inputs": [
        {
          "name": "data",
          "type": "bytes32[]"
        }
      ],
      "name": "bytes32ArrayToString",
      "outputs": [
        {
          "name": "",
          "type": "string"
        }
      ],
      "payable": false,
      "stateMutability": "view",
      "type": "function"
    }
  ],
  "bytecode": "0x606060405234156200001057600080fd5b4360058190555060326005540160038190555060326003540160048190555060016006819055506001600960006101000a81548160ff02191690831515021790555060078054806001018281620000689190620000af565b9160005260206000209001600060019091909150555060078054806001018281620000949190620000af565b91600052602060002090016000809091909150555062000106565b815481835581811511620000d957818360005260206000209182019101620000d89190620000de565b5b505050565b6200010391905b80821115620000ff576000816000905550600101620000e5565b5090565b90565b612e4480620001166000396000f3006060604052600436106100ba576000357c0100000000000000000000000000000000000000000000000000000000900463ffffffff1680630510a88a146100bf5780630da19175146100f65780631ee1c6391461015d578063262c7e18146101c457806357cec3651461023657806360654e471461025f5780639201de551461028857806397f263d7146103285780639cbc87a31461038f578063b018013714610462578063f7c305ac1461048b578063ffc7d031146104b4575b600080fd5b34156100ca57600080fd5b6100e060048080359060200190919050506104dd565b6040518082815260200191505060405180910390f35b610143600480803590602001908201803590602001908080602002602001604051908101604052809392919081815260200183836020028082843782019150505050505091905050610501565b604051808215151515815260200191505060405180910390f35b6101aa6004808035906020019082018035906020019080806020026020016040519081016040528093929190818152602001838360200280828437820191505050505050919050506109e8565b604051808215151515815260200191505060405180910390f35b34156101cf57600080fd5b61021c600480803590602001908201803590602001908080602002602001604051908101604052809392919081815260200183836020028082843782019150505050505091905050610ed0565b604051808215151515815260200191505060405180910390f35b341561024157600080fd5b610249611505565b6040518082815260200191505060405180910390f35b341561026a57600080fd5b61027261150b565b6040518082815260200191505060405180910390f35b341561029357600080fd5b6102ad60048080356000191690602001909190505061152f565b6040518080602001828103825283818151815260200191508051906020019080838360005b838110156102ed5780820151818401526020810190506102d2565b50505050905090810190601f16801561031a5780820380516001836020036101000a031916815260200191505b509250505060405180910390f35b61037560048080359060200190820180359060200190808060200260200160405190810160405280939291908181526020018383602002808284378201915050505050509190505061171c565b604051808215151515815260200191505060405180910390f35b341561039a57600080fd5b6103e7600480803590602001908201803590602001908080602002602001604051908101604052809392919081815260200183836020028082843782019150505050505091905050611c03565b6040518080602001828103825283818151815260200191508051906020019080838360005b8381101561042757808201518184015260208101905061040c565b50505050905090810190601f1680156104545780820380516001836020036101000a031916815260200191505b509250505060405180910390f35b341561046d57600080fd5b610475611e21565b6040518082815260200191505060405180910390f35b341561049657600080fd5b61049e611e27565b6040518082815260200191505060405180910390f35b34156104bf57600080fd5b6104c7611e2d565b6040518082815260200191505060405180910390f35b6007818154811015156104ec57fe5b90600052602060002090016000915090505481565b60008061050c612b18565b610514612b2c565b4392506003548310151561052b5761052a611e33565b5b61053485611c03565b9150661c6bf5263400003414156109db5760a0604051908101604052803373ffffffffffffffffffffffffffffffffffffffff1681526020016000600281111561057a57fe5b815260200160001515815260200160036040518059106105975750595b90808252806020026020018201604052508152602001868152509050600180836040518082805190602001908083835b6020831015156105ec57805182526020820191506020810190506020830392506105c7565b6001836020036101000a0380198251168184511680821785525050505050509050019150509081526020016040518091039020600060038110151561062d57fe5b01541080156106b6575060006001836040518082805190602001908083835b602083101515610671578051825260208201915060208101905060208303925061064c565b6001836020036101000a038019825116818451168082178552505050505050905001915050908152602001604051809103902060016003811015156106b257fe5b0154145b801561073c575060006001836040518082805190602001908083835b6020831015156106f757805182526020820191506020810190506020830392506106d2565b6001836020036101000a0380198251168184511680821785525050505050509050019150509081526020016040518091039020600260038110151561073857fe5b0154145b151561074757600080fd5b600180836040518082805190602001908083835b602083101515610780578051825260208201915060208101905060208303925061075b565b6001836020036101000a038019825116818451168082178552505050505050905001915050908152602001604051809103902060006003811015156107c157fe5b0160008282540192505081905550600080600654815260200190815260200160002060003373ffffffffffffffffffffffffffffffffffffffff1673ffffffffffffffffffffffffffffffffffffffff16815260200190815260200160002080548060010182816108329190612b8b565b9160005260206000209060030201600083909190915060008201518160000160006101000a81548173ffffffffffffffffffffffffffffffffffffffff021916908373ffffffffffffffffffffffffffffffffffffffff16021790555060208201518160000160146101000a81548160ff021916908360028111156108b357fe5b021790555060408201518160000160156101000a81548160ff02191690831515021790555060608201518160010190805190602001906108f4929190612bbd565b506080820151816002019080519060200190610911929190612c0a565b5050505034600760065481548110151561092757fe5b9060005260206000209001600082825401925050819055507fc708762cfec9c74f241d71525c7b9f8241d5f50ec08dd8c9b3e750d69b17bd798160000151826020015160065486604051808573ffffffffffffffffffffffffffffffffffffffff1673ffffffffffffffffffffffffffffffffffffffff1681526020018460028111156109b057fe5b60ff16815260200183815260200182815260200194505050505060405180910390a1600193506109e0565b600080fd5b505050919050565b6000806109f3612b18565b6109fb612b2c565b43925060035483101515610a1257610a11611e33565b5b610a1b85611c03565b9150660e35fa931a0000341415610ec35760a0604051908101604052803373ffffffffffffffffffffffffffffffffffffffff16815260200160016002811115610a6157fe5b81526020016000151581526020016003604051805910610a7e5750595b9080825280602002602001820160405250815260200186815250905060006001836040518082805190602001908083835b602083101515610ad45780518252602082019150602081019050602083039250610aaf565b6001836020036101000a03801982511681845116808217855250505050505090500191505090815260200160405180910390206000600381101515610b1557fe5b0154148015610b9e575060026001836040518082805190602001908083835b602083101515610b595780518252602082019150602081019050602083039250610b34565b6001836020036101000a03801982511681845116808217855250505050505090500191505090815260200160405180910390206001600381101515610b9a57fe5b0154105b8015610c24575060006001836040518082805190602001908083835b602083101515610bdf5780518252602082019150602081019050602083039250610bba565b6001836020036101000a03801982511681845116808217855250505050505090500191505090815260200160405180910390206002600381101515610c2057fe5b0154145b1515610c2f57600080fd5b600180836040518082805190602001908083835b602083101515610c685780518252602082019150602081019050602083039250610c43565b6001836020036101000a03801982511681845116808217855250505050505090500191505090815260200160405180910390206001600381101515610ca957fe5b0160008282540192505081905550600080600654815260200190815260200160002060003373ffffffffffffffffffffffffffffffffffffffff1673ffffffffffffffffffffffffffffffffffffffff1681526020019081526020016000208054806001018281610d1a9190612b8b565b9160005260206000209060030201600083909190915060008201518160000160006101000a81548173ffffffffffffffffffffffffffffffffffffffff021916908373ffffffffffffffffffffffffffffffffffffffff16021790555060208201518160000160146101000a81548160ff02191690836002811115610d9b57fe5b021790555060408201518160000160156101000a81548160ff0219169083151502179055506060820151816001019080519060200190610ddc929190612bbd565b506080820151816002019080519060200190610df9929190612c0a565b50505050346007600654815481101515610e0f57fe5b9060005260206000209001600082825401925050819055507fc708762cfec9c74f241d71525c7b9f8241d5f50ec08dd8c9b3e750d69b17bd798160000151826020015160065486604051808573ffffffffffffffffffffffffffffffffffffffff1673ffffffffffffffffffffffffffffffffffffffff168152602001846002811115610e9857fe5b60ff16815260200183815260200182815260200194505050505060405180910390a160019350610ec8565b600080fd5b505050919050565b6000806000610edd612b2c565b60004393507f47474d0f16d7d68df2566c30e09186ff4766b42f2ef9b2ea17a6b8ff53e2221d338786600654604051808573ffffffffffffffffffffffffffffffffffffffff1673ffffffffffffffffffffffffffffffffffffffff16815260200180602001848152602001838152602001828103825285818151815260200191508051906020019060200280838360005b83811015610f8a578082015181840152602081019050610f6f565b505050509050019550505050505060405180910390a160045484101515610fb457610fb3611e33565b5b600092505b600080600160065403815260200190815260200160002060003373ffffffffffffffffffffffffffffffffffffffff1673ffffffffffffffffffffffffffffffffffffffff168152602001908152602001600020805490508310156114f757600080600160065403815260200190815260200160002060003373ffffffffffffffffffffffffffffffffffffffff1673ffffffffffffffffffffffffffffffffffffffff1681526020019081526020016000208381548110151561107957fe5b906000526020600020906003020160a060405190810160405290816000820160009054906101000a900473ffffffffffffffffffffffffffffffffffffffff1673ffffffffffffffffffffffffffffffffffffffff1673ffffffffffffffffffffffffffffffffffffffff1681526020016000820160149054906101000a900460ff16600281111561110757fe5b600281111561111257fe5b81526020016000820160159054906101000a900460ff161515151581526020016001820180548060200260200160405190810160405280929190818152602001828054801561118057602002820191906000526020600020905b81548152602001906001019080831161116c575b50505050508152602001600282018054806020026020016040519081016040528092919081815260200182805480156111dc57602002820191906000526020600020905b815460001916815260200190600101908083116111c4575b5050505050815250509150816040015115156114ea578160800151600081518110151561120557fe5b906020019060200201516000191686600081518110151561122257fe5b9060200190602002015133604051808381526020018273ffffffffffffffffffffffffffffffffffffffff1673ffffffffffffffffffffffffffffffffffffffff166c01000000000000000000000000028152601401925050506040518091039020600019161480156113285750816080015160018151811015156112a357fe5b90602001906020020151600019168660018151811015156112c057fe5b9060200190602002015133604051808381526020018273ffffffffffffffffffffffffffffffffffffffff1673ffffffffffffffffffffffffffffffffffffffff166c0100000000000000000000000002815260140192505050604051809103902060001916145b80156113c757508160800151600281518110151561134257fe5b906020019060200201516000191686600281518110151561135f57fe5b9060200190602002015133604051808381526020018273ffffffffffffffffffffffffffffffffffffffff1673ffffffffffffffffffffffffffffffffffffffff166c0100000000000000000000000002815260140192505050604051809103902060001916145b905080156114e9576001826040019015159081151581525050858260600181905250600880548060010182816113fd9190612b8b565b9160005260206000209060030201600084909190915060008201518160000160006101000a81548173ffffffffffffffffffffffffffffffffffffffff021916908373ffffffffffffffffffffffffffffffffffffffff16021790555060208201518160000160146101000a81548160ff0219169083600281111561147e57fe5b021790555060408201518160000160156101000a81548160ff02191690831515021790555060608201518160010190805190602001906114bf929190612bbd565b5060808201518160020190805190602001906114dc929190612c0a565b50505050600194506114fc565b5b8280600101935050610fb9565b600094505b50505050919050565b60035481565b6000600760065481548110151561151e57fe5b906000526020600020900154905090565b611537612b18565b61153f612c5d565b600080600061154c612c5d565b602060405180591061155b5750595b9080825280601f01601f1916602001820160405250945060009350600092505b6020831015611639578260080260020a876001900402600102915060007f010000000000000000000000000000000000000000000000000000000000000002827effffffffffffffffffffffffffffffffffffffffffffffffffffffffffffff191614151561162c578185858151811015156115f357fe5b9060200101907effffffffffffffffffffffffffffffffffffffffffffffffffffffffffffff1916908160001a90535083806001019450505b828060010193505061157b565b836040518059106116475750595b9080825280601f01601f19166020018201604052509050600092505b8383101561170f57848381518110151561167957fe5b9060200101517f010000000000000000000000000000000000000000000000000000000000000090047f01000000000000000000000000000000000000000000000000000000000000000281848151811015156116d257fe5b9060200101907effffffffffffffffffffffffffffffffffffffffffffffffffffffffffffff1916908160001a9053508280600101935050611663565b8095505050505050919050565b600080611727612b18565b61172f612b2c565b4392506003548310151561174657611745611e33565b5b61174f85611c03565b915066071afd498d0000341415611bf65760a0604051908101604052803373ffffffffffffffffffffffffffffffffffffffff16815260200160028081111561179457fe5b815260200160001515815260200160036040518059106117b15750595b9080825280602002602001820160405250815260200186815250905060006001836040518082805190602001908083835b60208310151561180757805182526020820191506020810190506020830392506117e2565b6001836020036101000a0380198251168184511680821785525050505050509050019150509081526020016040518091039020600060038110151561184857fe5b01541480156118d1575060006001836040518082805190602001908083835b60208310151561188c5780518252602082019150602081019050602083039250611867565b6001836020036101000a038019825116818451168082178552505050505050905001915050908152602001604051809103902060016003811015156118cd57fe5b0154145b8015611957575060046001836040518082805190602001908083835b60208310151561191257805182526020820191506020810190506020830392506118ed565b6001836020036101000a0380198251168184511680821785525050505050509050019150509081526020016040518091039020600260038110151561195357fe5b0154105b151561196257600080fd5b600180836040518082805190602001908083835b60208310151561199b5780518252602082019150602081019050602083039250611976565b6001836020036101000a038019825116818451168082178552505050505050905001915050908152602001604051809103902060026003811015156119dc57fe5b0160008282540192505081905550600080600654815260200190815260200160002060003373ffffffffffffffffffffffffffffffffffffffff1673ffffffffffffffffffffffffffffffffffffffff1681526020019081526020016000208054806001018281611a4d9190612b8b565b9160005260206000209060030201600083909190915060008201518160000160006101000a81548173ffffffffffffffffffffffffffffffffffffffff021916908373ffffffffffffffffffffffffffffffffffffffff16021790555060208201518160000160146101000a81548160ff02191690836002811115611ace57fe5b021790555060408201518160000160156101000a81548160ff0219169083151502179055506060820151816001019080519060200190611b0f929190612bbd565b506080820151816002019080519060200190611b2c929190612c0a565b50505050346007600654815481101515611b4257fe5b9060005260206000209001600082825401925050819055507fc708762cfec9c74f241d71525c7b9f8241d5f50ec08dd8c9b3e750d69b17bd798160000151826020015160065486604051808573ffffffffffffffffffffffffffffffffffffffff1673ffffffffffffffffffffffffffffffffffffffff168152602001846002811115611bcb57fe5b60ff16815260200183815260200182815260200194505050505060405180910390a160019350611bfb565b600080fd5b505050919050565b611c0b612b18565b611c13612c5d565b600080600080611c21612c5d565b6020885102604051805910611c335750595b9080825280601f01601f19166020018201604052509550600093505b8751841015611d3d57600092505b6020831015611d30578260080260020a8885815181101515611c7b57fe5b906020019060200201516001900402600102915060007f010000000000000000000000000000000000000000000000000000000000000002827effffffffffffffffffffffffffffffffffffffffffffffffffffffffffffff1916141515611d2357818686815181101515611cec57fe5b9060200101907effffffffffffffffffffffffffffffffffffffffffffffffffffffffffffff1916908160001a9053506001850194505b8280600101935050611c5d565b8380600101945050611c4f565b84604051805910611d4b5750595b9080825280601f01601f19166020018201604052509050600093505b84841015611e13578584815181101515611d7d57fe5b9060200101517f010000000000000000000000000000000000000000000000000000000000000090047f0100000000000000000000000000000000000000000000000000000000000000028185815181101515611dd657fe5b9060200101907effffffffffffffffffffffffffffffffffffffffffffffffffffffffffffff1916908160001a9053508380600101945050611d67565b809650505050505050919050565b60045481565b60055481565b60065481565b6000611e3d612c71565b600080611e48612b2c565b4394507f2190d6785fd9fafab68c41fa8b300cc453213314969e35645239a51faf9221cd85600654604051808381526020018281526020019250505060405180910390a1603260036000828254019250508190555060078054806001018281611eb19190612c85565b916000526020600020900160008090919091505550600960009054906101000a900460ff16151561286957611ee461289e565b93506007600160065403815481101515611efa57fe5b9060005260206000209001549250600091505b60088054905082101561280a57600882815481101515611f2957fe5b906000526020600020906003020160a060405190810160405290816000820160009054906101000a900473ffffffffffffffffffffffffffffffffffffffff1673ffffffffffffffffffffffffffffffffffffffff1673ffffffffffffffffffffffffffffffffffffffff1681526020016000820160149054906101000a900460ff166002811115611fb757fe5b6002811115611fc257fe5b81526020016000820160159054906101000a900460ff161515151581526020016001820180548060200260200160405190810160405280929190818152602001828054801561203057602002820191906000526020600020905b81548152602001906001019080831161201c575b505050505081526020016002820180548060200260200160405190810160405280929190818152602001828054801561208c57602002820191906000526020600020905b81546000191681526020019060010190808311612074575b50505050508152505090508360008151811015156120a657fe5b90602001906020020151816060015160008151811015156120c357fe5b90602001906020020151141561230f57600060028111156120e057fe5b816020015160028111156120f057fe5b14156121915760028381151561210257fe5b0460026000836000015173ffffffffffffffffffffffffffffffffffffffff1673ffffffffffffffffffffffffffffffffffffffff1681526020019081526020016000206000828254019250508190555060028381151561215f57fe5b04600760016006540381548110151561217457fe5b90600052602060002090016000828254039250508190555061230a565b6001600281111561219e57fe5b816020015160028111156121ae57fe5b141561224f576004838115156121c057fe5b0460026000836000015173ffffffffffffffffffffffffffffffffffffffff1673ffffffffffffffffffffffffffffffffffffffff1681526020019081526020016000206000828254019250508190555060048381151561221d57fe5b04600760016006540381548110151561223257fe5b906000526020600020900160008282540392505081905550612309565b60028081111561225b57fe5b8160200151600281111561226b57fe5b14156123085760088381151561227d57fe5b0460026000836000015173ffffffffffffffffffffffffffffffffffffffff1673ffffffffffffffffffffffffffffffffffffffff168152602001908152602001600020600082825401925050819055506008838115156122da57fe5b0460076001600654038154811015156122ef57fe5b9060005260206000209001600082825403925050819055505b5b5b6127fd565b83600181518110151561231e57fe5b906020019060200201518160600151600181518110151561233b57fe5b906020019060200201511415612587576000600281111561235857fe5b8160200151600281111561236857fe5b14156124095760048381151561237a57fe5b0460026000836000015173ffffffffffffffffffffffffffffffffffffffff1673ffffffffffffffffffffffffffffffffffffffff168152602001908152602001600020600082825401925050819055506004838115156123d757fe5b0460076001600654038154811015156123ec57fe5b906000526020600020900160008282540392505081905550612582565b6001600281111561241657fe5b8160200151600281111561242657fe5b14156124c75760088381151561243857fe5b0460026000836000015173ffffffffffffffffffffffffffffffffffffffff1673ffffffffffffffffffffffffffffffffffffffff1681526020019081526020016000206000828254019250508190555060088381151561249557fe5b0460076001600654038154811015156124aa57fe5b906000526020600020900160008282540392505081905550612581565b6002808111156124d357fe5b816020015160028111156124e357fe5b1415612580576010838115156124f557fe5b0460026000836000015173ffffffffffffffffffffffffffffffffffffffff1673ffffffffffffffffffffffffffffffffffffffff1681526020019081526020016000206000828254019250508190555060108381151561255257fe5b04600760016006540381548110151561256757fe5b9060005260206000209001600082825403925050819055505b5b5b6127fc565b83600281518110151561259657fe5b90602001906020020151816060015160028151811015156125b357fe5b9060200190602002015114156127fb57600060028111156125d057fe5b816020015160028111156125e057fe5b1415612681576008838115156125f257fe5b0460026000836000015173ffffffffffffffffffffffffffffffffffffffff1673ffffffffffffffffffffffffffffffffffffffff1681526020019081526020016000206000828254019250508190555060088381151561264f57fe5b04600760016006540381548110151561266457fe5b9060005260206000209001600082825403925050819055506127fa565b6001600281111561268e57fe5b8160200151600281111561269e57fe5b141561273f576010838115156126b057fe5b0460026000836000015173ffffffffffffffffffffffffffffffffffffffff1673ffffffffffffffffffffffffffffffffffffffff1681526020019081526020016000206000828254019250508190555060108381151561270d57fe5b04600760016006540381548110151561272257fe5b9060005260206000209001600082825403925050819055506127f9565b60028081111561274b57fe5b8160200151600281111561275b57fe5b14156127f85760208381151561276d57fe5b0460026000836000015173ffffffffffffffffffffffffffffffffffffffff1673ffffffffffffffffffffffffffffffffffffffff168152602001908152602001600020600082825401925050819055506020838115156127ca57fe5b0460076001600654038154811015156127df57fe5b9060005260206000209001600082825403925050819055505b5b5b5b5b5b8180600101925050611f0d565b600760016006540381548110151561281e57fe5b906000526020600020900154600760065481548110151561283b57fe5b9060005260206000209001600082825401925050819055506032600460008282540192505081905550612885565b6000600960006101000a81548160ff0219169083151502179055505b6006600081548092919060010191905055505050505050565b6128a6612c71565b6128ae612c71565b600060036040518059106128bf5750595b90808252806020026020018201604052509150600860008154811015156128e257fe5b9060005260206000209060030201600101600081548110151561290157fe5b90600052602060002090015482600081518110151561291c57fe5b90602001906020020181815250506008600081548110151561293a57fe5b9060005260206000209060030201600101600181548110151561295957fe5b90600052602060002090015482600181518110151561297457fe5b90602001906020020181815250506008600081548110151561299257fe5b906000526020600020906003020160010160028154811015156129b157fe5b9060005260206000209001548260028151811015156129cc57fe5b9060200190602002018181525050600190505b600880549050811015612b10576008818154811015156129fb57fe5b90600052602060002090600302016001016000815481101515612a1a57fe5b906000526020600020900154826000815181101515612a3557fe5b9060200190602002018181511891508181525050600881815481101515612a5857fe5b90600052602060002090600302016001016001815481101515612a7757fe5b906000526020600020900154826001815181101515612a9257fe5b9060200190602002018181511891508181525050600881815481101515612ab557fe5b90600052602060002090600302016001016002815481101515612ad457fe5b906000526020600020900154826002815181101515612aef57fe5b906020019060200201818151189150818152505080806001019150506129df565b819250505090565b602060405190810160405280600081525090565b60a060405190810160405280600073ffffffffffffffffffffffffffffffffffffffff16815260200160006002811115612b6257fe5b8152602001600015158152602001612b78612cb1565b8152602001612b85612cc5565b81525090565b815481835581811511612bb857600302816003028360005260206000209182019101612bb79190612cd9565b5b505050565b828054828255906000526020600020908101928215612bf9579160200282015b82811115612bf8578251825591602001919060010190612bdd565b5b509050612c069190612d67565b5090565b828054828255906000526020600020908101928215612c4c579160200282015b82811115612c4b578251829060001916905591602001919060010190612c2a565b5b509050612c599190612d8c565b5090565b602060405190810160405280600081525090565b602060405190810160405280600081525090565b815481835581811511612cac57818360005260206000209182019101612cab9190612db1565b5b505050565b602060405190810160405280600081525090565b602060405190810160405280600081525090565b612d6491905b80821115612d6057600080820160006101000a81549073ffffffffffffffffffffffffffffffffffffffff02191690556000820160146101000a81549060ff02191690556000820160156101000a81549060ff0219169055600182016000612d479190612dd6565b600282016000612d579190612df7565b50600301612cdf565b5090565b90565b612d8991905b80821115612d85576000816000905550600101612d6d565b5090565b90565b612dae91905b80821115612daa576000816000905550600101612d92565b5090565b90565b612dd391905b80821115612dcf576000816000905550600101612db7565b5090565b90565b5080546000825590600052602060002090810190612df49190612d67565b50565b5080546000825590600052602060002090810190612e159190612d8c565b505600a165627a7a72305820767b1e2f673fd676e22f51c4fed547ed4da3398705f776c5212781bbdae91b590029",
  "source": "pragma solidity ^0.4.4;\n\n\ncontract Lottery {\n\n\tenum TicketType { Full, Half, Quarter }\t\t// types of Ticket\n\n\tstruct Ticket {\n\t\taddress owner;\t\t\t\t// purchaser of the Ticket\n\t\tTicketType ttype;\t\t\t// type of the Ticket\n\t\tbool is_verified;\t\t\t// verifying flag for the Ticket\n\t\tint[] rand_nums;\t\t\t// random numbers submitted by purchaser to verify with hashes\n\t\tbytes32[] rand_hashes;\t\t// hashes of random numbers submitted by purchaser while a ticket purchasing\n\t}\n\n\t// constant ticket prices\n\tuint constant full_pay = 8 finney;\n\tuint constant half_pay = 4 finney;\n\tuint constant quarter_pay = 2 finney;\n\n\t\n\tuint constant block_period = 50;\t// constant block period\n\n\n\t/* \t\n\t\t*********************************************************************\n\t\t*\t\t\t\t\t\t\t\t\t\t\t\t\t\t\t\t\t*\n\t\t*\t\t\t\t\t\t\tVARIABLES\t\t\t\t\t\t\t\t*\n\t\t*\t\t\t\t\t\t\t\t\t\t\t\t\t\t\t\t\t*\n\t\t*********************************************************************\n\t*/\n\n\tmapping(uint => mapping(address => Ticket[])) purchased_tickets;\t// map purchaser to Tickets he buy, for indexed lottery\n\tmapping(string => uint[3]) used_randoms;\t\t\t// keep random numbers to prevent use again, for each TicketType\n\tmapping(address => uint) balance_of_purchasers;\t\t// balance of purchasers' in the contract\n\n\n\tuint public purchase_end;\t// block number of purchase stage end\n\tuint public\treveal_end;\t\t// block number of reveal stage end\n\tuint public initial_block_num;\t// block number of the contract at the start\n    uint public lottery_no;\t\t// current lottery number\n\tuint[] public lottery_balance;\t// current balances of lotteries\n\n\t\n    Ticket[] revealed_tickets;\t// revealed ticket list\n\n    bool first_purchase;\n\n\n    /* \t\n\t\t*********************************************************************\n\t\t*\t\t\t\t\t\t\t\t\t\t\t\t\t\t\t\t\t*\n\t\t*\t\t\t\t\t\t\tFUNCTIONS\t\t\t\t\t\t\t\t*\n\t\t*\t\t\t\t\t\t\t\t\t\t\t\t\t\t\t\t\t*\n\t\t*********************************************************************\n\t*/\n\n\tfunction Lottery() {\n\t\tinitial_block_num = block.number;\n\t\tpurchase_end =\tinitial_block_num +  block_period;\n\t\treveal_end = purchase_end + block_period;\n\t\tlottery_no = 1;\n\t\tfirst_purchase = true;\n\t\tlottery_balance.push(1);\n\t\tlottery_balance.push(0);\n\t}\n\n\n\tfunction buyFullTicket(bytes32[] _rand_hashes) public payable returns (bool) {\n\t\tuint block_num = block.number;\n\n\n\t\tif (block_num >= purchase_end) {\n\t\t\tupdateLottery();\n\t\t}\n\n\t\t// concatenation of three hashes as string\n\t\tstring memory concat_hash = bytes32ArrayToString(_rand_hashes);\n\n\t\tif (msg.value == full_pay) {\n\n\t\t\tTicket memory ticket = Ticket({\n\t\t\t\towner: msg.sender,\n\t\t\t\trand_hashes: _rand_hashes,\n\t\t\t\tttype: TicketType.Full,\n\t\t\t\tis_verified: false,\n\t\t\t\trand_nums: new int[](3)\t\t\t\n\t\t\t});\n\n\n\t\t\t/* \n\t\t\t\tnumber of sold Full tickets should be smaller than 1 (there can be only one Full ticket)\n\t\t\t\tthese three random numbers must not for other TicketTypes, since trying buy Full ticket\n\t\t\t*/\n\t\t\tif ( !(used_randoms[concat_hash][0] < 1 && \n\t\t\t\t used_randoms[concat_hash][1] == 0 &&\n\t\t\t\t used_randoms[concat_hash][2] == 0 )){\n\t\t\t\trevert();\n\t\t\t} else {\n\n\t\t\t\tused_randoms[concat_hash][0] += 1;\n\n\t\t\t\tpurchased_tickets[lottery_no][msg.sender].push(ticket);\n\t\t\t\tlottery_balance[lottery_no] += msg.value;\n\n\t\t\t\temit TicketPurchased(ticket.owner, ticket.ttype, lottery_no, block_num);\n\t\t\t\treturn true;\n\t\t\t}\n\n\t\t} else {\n\t\t\trevert();\n\t\t}\n\t}\n\n\n\tfunction buyHalfTicket(bytes32[] _rand_hashes) public payable returns (bool) {\n\t\tuint block_num = block.number;\n\n\n\t\tif (block_num >= purchase_end) {\n\t\t\tupdateLottery();\n\t\t}\n\n\t\t// concatenation of three hashes as string\n\t\tstring memory concat_hash = bytes32ArrayToString(_rand_hashes);\n\n\t\tif (msg.value == half_pay) {\n\n\t\t\tTicket memory ticket = Ticket({\n\t\t\t\towner: msg.sender,\n\t\t\t\trand_hashes: _rand_hashes,\n\t\t\t\tttype: TicketType.Half,\n\t\t\t\tis_verified: false,\n\t\t\t\trand_nums: new int[](3)\t\t\t\n\t\t\t});\n\n\n\t\t\t/* \n\t\t\t\tnumber of sold Full tickets should be smaller than 1 (there can be only one Full ticket)\n\t\t\t\tthese three random numbers must not for other TicketTypes, since trying buy Full ticket\n\t\t\t*/\n\t\t\tif ( !(used_randoms[concat_hash][0] == 0 && \n\t\t\t\t used_randoms[concat_hash][1] < 2 &&\n\t\t\t\t used_randoms[concat_hash][2] == 0 )){\n\t\t\t\trevert();\n\t\t\t} else {\n\n\t\t\t\tused_randoms[concat_hash][1] += 1;\n\n\t\t\t\tpurchased_tickets[lottery_no][msg.sender].push(ticket);\n\t\t\t\tlottery_balance[lottery_no] += msg.value;\n\n\t\t\t\temit TicketPurchased(ticket.owner, ticket.ttype, lottery_no, block_num);\n\t\t\t\treturn true;\n\t\t\t}\n\n\t\t} else {\n\t\t\trevert();\n\t\t}\n\t}\n\n\n\tfunction buyQuarterTicket(bytes32[] _rand_hashes) public payable returns (bool) {\n\t\tuint block_num = block.number;\n\n\n\t\tif (block_num >= purchase_end) {\n\t\t\tupdateLottery();\n\t\t}\n\n\t\t// concatenation of three hashes as string\n\t\tstring memory concat_hash = bytes32ArrayToString(_rand_hashes);\n\n\t\tif (msg.value == quarter_pay) {\n\n\t\t\tTicket memory ticket = Ticket({\n\t\t\t\towner: msg.sender,\n\t\t\t\trand_hashes: _rand_hashes,\n\t\t\t\tttype: TicketType.Quarter,\n\t\t\t\tis_verified: false,\n\t\t\t\trand_nums: new int[](3)\t\t\t\n\t\t\t});\n\n\n\t\t\t/* \n\t\t\t\tnumber of sold Full tickets should be smaller than 1 (there can be only one Full ticket)\n\t\t\t\tthese three random numbers must not for other TicketTypes, since trying buy Full ticket\n\t\t\t*/\n\t\t\tif ( !(used_randoms[concat_hash][0] == 0 && \n\t\t\t\t used_randoms[concat_hash][1] == 0 &&\n\t\t\t\t used_randoms[concat_hash][2] < 4 )){\n\t\t\t\trevert();\n\t\t\t} else {\n\n\t\t\t\tused_randoms[concat_hash][2] += 1;\n\n\t\t\t\tpurchased_tickets[lottery_no][msg.sender].push(ticket);\n\t\t\t\tlottery_balance[lottery_no] += msg.value;\n\n\t\t\t\temit TicketPurchased(ticket.owner, ticket.ttype, lottery_no, block_num);\n\t\t\t\treturn true;\n\t\t\t}\n\n\t\t} else {\n\t\t\trevert();\n\t\t}\n\t}\n\n\n\tfunction revealTicket(int[] _rand_nums) public returns(bool) {\n\t\tuint block_num = block.number;\n\n\t\temit RevealTicket(msg.sender, _rand_nums, block_num, lottery_no);\n\n\n\t\tif (block_num >= reveal_end) {\n\t\t\tupdateLottery();\n\t\t}\n\n\n\t\t// verify three random numbers of purchaser with the ticket via hashes\n\t\tfor (uint i = 0; i < purchased_tickets[lottery_no-1][msg.sender].length; i++){\n\t\t\tTicket memory ticket = purchased_tickets[lottery_no-1][msg.sender][i];\n\t\t\tif (!ticket.is_verified){\n\n\t\t\t\tbool verify = ( keccak256(_rand_nums[0], msg.sender) == ticket.rand_hashes[0] && \n\t\t\t\t\t\t\t\tkeccak256(_rand_nums[1], msg.sender) == ticket.rand_hashes[1] && \n\t\t\t\t\t\t\t\tkeccak256(_rand_nums[2], msg.sender) == ticket.rand_hashes[2] );\n\t\t\t\tif (verify) {\n\t\t\t\t\tticket.is_verified = true;\n\t\t\t\t\tticket.rand_nums = _rand_nums;\n\t\t\t\t\trevealed_tickets.push(ticket);\n\t\t\t\t\treturn true;\n\t\t\t\t}\n\t\t\t}\n\t\t}\n\t\treturn false;\n\t}\n\n\n\tfunction updateLottery() private {\n\n\n\t\tuint block_num = block.number;\n\n\t\temit UpdateLottery(block_num, lottery_no);\n\n\t\tpurchase_end += block_period;\n\t\tlottery_balance.push(0);\n\t\t\n\n\t\tif (!first_purchase){\n\n\t\t\t// determine winner random numbers with XOR\n\t\t\tint[] memory winner_numbers = random();\n\n\t\t\tuint temp_balance = lottery_balance[lottery_no-1];\n\t\t\tfor (uint i = 0; i < revealed_tickets.length; i++) {\n\n\t\t\t\tTicket memory ticket = revealed_tickets[i];\n\n\t\t\t\tif (ticket.rand_nums[0] == winner_numbers[0]) {\n\t\t\t\t\tif (ticket.ttype == TicketType.Full) {\n\t\t\t\t\t\tbalance_of_purchasers[ticket.owner] += temp_balance/2;\n\t\t\t\t\t\tlottery_balance[lottery_no-1] -= temp_balance/2;\n\t\t\t\t\t} else if (ticket.ttype == TicketType.Half) {\n\t\t\t\t\t\tbalance_of_purchasers[ticket.owner] += temp_balance/4;\n\t\t\t\t\t\tlottery_balance[lottery_no-1] -= temp_balance/4;\n\t\t\t\t\t} else if (ticket.ttype == TicketType.Quarter) {\n\t\t\t\t\t\tbalance_of_purchasers[ticket.owner] += temp_balance/8;\n\t\t\t\t\t\tlottery_balance[lottery_no-1] -= temp_balance/8;\n\t\t\t\t\t}\n\t\t\t\t}\n\n\t\t\t\telse if (ticket.rand_nums[1] == winner_numbers[1]) {\n\t\t\t\t\tif (ticket.ttype == TicketType.Full) {\n\t\t\t\t\t\tbalance_of_purchasers[ticket.owner] += temp_balance/4;\n\t\t\t\t\t\tlottery_balance[lottery_no-1] -= temp_balance/4;\n\t\t\t\t\t} else if (ticket.ttype == TicketType.Half) {\n\t\t\t\t\t\tbalance_of_purchasers[ticket.owner] += temp_balance/8;\n\t\t\t\t\t\tlottery_balance[lottery_no-1] -= temp_balance/8;\n\t\t\t\t\t} else if (ticket.ttype == TicketType.Quarter) {\n\t\t\t\t\t\tbalance_of_purchasers[ticket.owner] += temp_balance/16;\n\t\t\t\t\t\tlottery_balance[lottery_no-1] -= temp_balance/16;\n\t\t\t\t\t}\n\t\t\t\t}\n\n\t\t\t\telse if (ticket.rand_nums[2] == winner_numbers[2]) {\n\t\t\t\t\tif (ticket.ttype == TicketType.Full) {\n\t\t\t\t\t\tbalance_of_purchasers[ticket.owner] += temp_balance/8;\n\t\t\t\t\t\tlottery_balance[lottery_no-1] -= temp_balance/8;\n\t\t\t\t\t} else if (ticket.ttype == TicketType.Half) {\n\t\t\t\t\t\tbalance_of_purchasers[ticket.owner] += temp_balance/16;\n\t\t\t\t\t\tlottery_balance[lottery_no-1] -= temp_balance/16;\n\t\t\t\t\t} else if (ticket.ttype == TicketType.Quarter) {\n\t\t\t\t\t\tbalance_of_purchasers[ticket.owner] += temp_balance/32;\n\t\t\t\t\t\tlottery_balance[lottery_no-1] -= temp_balance/32;\n\t\t\t\t\t}\n\t\t\t\t}\n\t\t\t}\n\t\t\tlottery_balance[lottery_no] += lottery_balance[lottery_no-1];\n\n\t\t\treveal_end += block_period;\n\t\t\t\n\t\t} else {\n\t\t\tfirst_purchase = false;\n\t\t}\n\n\n\t\tlottery_no++;\n\t}\n\n\n\n\tfunction getLotteryBalance() constant public returns(uint) {\n    \treturn lottery_balance[lottery_no];\n  \t}\n\n\n\tfunction random() private view returns (int[]) {\n\t\tint[] memory winner_numbers = new int[](3);\n\n\t\twinner_numbers[0] = revealed_tickets[0].rand_nums[0];\n\t\twinner_numbers[1] = revealed_tickets[0].rand_nums[1];\n\t\twinner_numbers[2] = revealed_tickets[0].rand_nums[2];\n\t\tfor (uint i = 1; i < revealed_tickets.length; i++) {\n\t\t\twinner_numbers[0] ^= revealed_tickets[i].rand_nums[0];\n\t\t\twinner_numbers[1] ^= revealed_tickets[i].rand_nums[1];\n\t\t\twinner_numbers[2] ^= revealed_tickets[i].rand_nums[2];\n\t\t}\n\n\t\treturn winner_numbers;\n\t}\n\n\n\tfunction bytes32ToString(bytes32 x) constant returns (string) {\n        bytes memory bytesString = new bytes(32);\n        uint charCount = 0;\n        for (uint j = 0; j < 32; j++) {\n            byte char = byte(bytes32(uint(x) * 2 ** (8 * j)));\n            if (char != 0) {\n                bytesString[charCount] = char;\n                charCount++;\n            }\n        }\n        bytes memory bytesStringTrimmed = new bytes(charCount);\n        for (j = 0; j < charCount; j++) {\n            bytesStringTrimmed[j] = bytesString[j];\n        }\n        return string(bytesStringTrimmed);\n    }\n\n    function bytes32ArrayToString(bytes32[] data) constant returns (string) {\n        bytes memory bytesString = new bytes(data.length * 32);\n        uint urlLength;\n        for (uint i=0; i<data.length; i++) {\n            for (uint j=0; j<32; j++) {\n                byte char = byte(bytes32(uint(data[i]) * 2 ** (8 * j)));\n                if (char != 0) {\n                    bytesString[urlLength] = char;\n                    urlLength += 1;\n                }\n            }\n        }\n        bytes memory bytesStringTrimmed = new bytes(urlLength);\n        for (i=0; i<urlLength; i++) {\n            bytesStringTrimmed[i] = bytesString[i];\n        }\n        return string(bytesStringTrimmed);\n    }\n\n\n\n    /* \t\n\t\t*********************************************************************\n\t\t*\t\t\t\t\t\t\t\t\t\t\t\t\t\t\t\t\t*\n\t\t*\t\t\t\t\t\t\t\tEVENTS\t\t\t\t\t\t\t\t*\n\t\t*\t\t\t\t\t\t\t\t\t\t\t\t\t\t\t\t\t*\n\t\t*********************************************************************\n\t*/\n\n\t// Event for when tickets are bought\n\tevent TicketPurchased(address owner, TicketType ttype, uint lottery_no, uint block_num);\n\n\tevent UpdateLottery(uint block_num, uint lottery_no);\n\n\tevent RevealTicket(address owner, int[] _rand_nums, uint block_num, uint lottery_no);\n\n\t// Event for declaring the winner\n\t//event AwardWinnings(address _to, uint _winnings);\n\n\t// Event for lottery reset\n\t//event ResetLottery();\n\n}\n",
  "sourcePath": "/home/frkn/Desktop/Autonomous-Decentralized-Lottery/contracts/Lottery.sol",
  "compiler": {
    "name": "solc",
    "version": "0.4.21+commit.dfe3193c.Emscripten.clang"
  },
  "schemaVersion": "2.0.0",
  "updatedAt": "2018-04-22T18:41:30.474Z"
}